:020000040800F2
:10C0000000F0002005C00208B5630108B96301080B
:10C01000BD630108C1630108C56301080000000099
:10C02000000000000000000000000000CD630108D7
:10C03000C963010800000000D1630108D56301084D
:10C04000D9630108DD630108E1630108E5630108C4
:10C05000E9630108ED630108F1630108F563010874
:10C06000F9630108FD630108016401080564010822
:10C07000096401080D6401081164010815640108D0
:10C08000196401081D640108216401082564010880
:10C09000296401082D640108316401083564010830
:10C0A000396401083D6401084164010845640108E0
:10C0B00049640108A5690108516C0108A16E0108D5
:10C0C000A56E0108A96E0108AD6E0108B16E0108E8
:10C0D000B56E0108B96E0108BD6E0108C16E010898
:10C0E000C56E0108C96E0108CD6E0108D16E010848
:10C0F000D56E0108D96E0108DD6E0108E16E0108F8
:10C10000E56E0108E96E0108ED6E0108F16E0108A7
:10C11000F56E0108F96E0108FD6E0108016F010856
:10C12000056F0108096F01080D6F0108116F010803
:10C130002DE9F04F47F6C474C0F60104ADF5297D32
:10C14000E368A268206861685594A2AC0FC4559E4C
:10C150003069716903C44CF20001C0F600014FF070
:10C16000006007F0E9FCF8F781F80B20F8F772F8A7
:10C17000034658B948F24802C0F6010200929820DE
:10C180001E2140F2FF72F8F75FF8FEE748F2540311
:10C19000C0F601030093202032214FF6FF720023E6
:10C1A000F8F752F848F28403C0F6010382214FF6F3
:10C1B000FF72009360200023F8F746F80720F8F795
:10C1C00049F84CF66063C2F2000318600820F8F7E3
:10C1D00041F84CF28457C2F2000738600920749786
:10C1E000F8F738F84CF65C63C2F2000318600A20D6
:10C1F000F8F730F84CF65863C2F2000318600D20CF
:10C20000F8F728F848F2AC01C0F60101042245F025
:10C21000DDF94CF66463C2F20003002846F0DB83CC
:10C2200001221A7043F26409C2F200093FF0D4FB04
:10C23000CDF87C9123F03CFE27F01CFC022300206B
:10C2400089F800303CF068FF0346002846F0B583CB
:10C2500048F2B402C0F60102009258201E214FF4A9
:10C26000FC62F7F7F1FFDDF87CC143F264039CF850
:10C270000020C2F20003042A84BF02221A7046F290
:10C28000231B46F2061300274FF4FA72C2F2000392
:10C290004FF4FA60C2F2000B1A8046F200258BF8C8
:10C2A000007007F085FD01203EF06EF8C2F2000537
:10C2B00026F0F6FB4FF4E06007F086FB01261E2314
:10C2C00005F11400EE756F75AF752B7543F22014F0
:10C2D00007F084FB4FF08043472040F2E73185228E
:10C2E0001885C2F2000499859E811A8029F0B2FC5B
:10C2F00046F2C64926F0BEFCB4F8F021C2F20009AD
:10C3000004214CF2925C43F25E6A4FF48053C2F215
:10C31000000C89F80020C4F201031022A4F80813CD
:10C32000C2F2000A02218CF80060CDF83CC0A4F8EB
:10C33000E062CDF82090A4F8F47238468AF8001034
:10C340001A61F7F787FF45F2317380B2984215BF43
:10C350004CF282564CF28257C2F20006C2F200073B
:10C360004FF025004FF0010112BF61963E706197BA
:10C37000F7F76CFF25200121F7F768FF0020F7F79A
:10C3800069FF40F2011380B2984203BF4BF20C1CCC
:10C39000C2F2000C01234BF20C1908BF8CF80030DC
:10C3A0004FF48053C4F2010318BFC2F200094FF0EA
:10C3B0001002619E14BFCDF86491CDF864C15A613A
:10C3C0003378002B06F0308543F28E63C2F200030F
:10C3D0000E221A7046F23F490026C2F200091C964E
:10C3E0001E961096CDF85C904BF60C4C47F2E90681
:10C3F00044F2F859C2F2000CC2F20006C2F200097F
:10C40000CDF880C01496CDF8D49044F2F95C43F294
:10C41000200647F2FA09C2F2000CC2F20006C2F28C
:10C420000009CDF8D8C00C96CDF834904CF2AA5C37
:10C4300046F22E4647F2E809C2F2000CC2F20006AC
:10C44000C2F20009CDF87CC01396CDF8289043F2D3
:10C45000900C46F20C1646F24149C2F2000CC2F2B0
:10C460000006C2F20009CDF824C00696CDF830913E
:10C4700043F2826C4CF28C5646F21A19C2F2000C4E
:10C48000C2F20006C2F20009CDF8F0C01996CDF84C
:10C490009C9046F20A1C46F24A4644F20C69C2F2EB
:10C4A000000CC2F20006C2F20009CDF868C0269660
:10C4B000CDF860904CF6566C46F2C74646F24949B4
:10C4C000C2F2000CC2F20006C2F20009CDF874C03C
:10C4D0002396CDF8009146F2604C43F2F4664CF29C
:10C4E0009359C2F2000CC2F20006C2F20009CDF864
:10C4F00044C12D96CDF8E0904CF2A05C43F2F76673
:10C500004CF64769C2F2000CC2F20006C2F2000902
:10C51000CDF858C15396CDF828914CF6486C44F2AA
:10C52000086646F208190027C2F2000CC2F20006A3
:10C53000C2F200091697CDF8C0C02996CDF81C901C
:10C5400049F25C49C0F60109CDF8F89043F2906CCD
:10C5500046F2F0064CF64469C2F2000CC2F2000644
:10C56000C2F20009CDF824C13A96CDF86C9046F29B
:10C57000442C46F210164BF6E749C2F2000CC2F208
:10C580000006C2F20009CDF814C00E96CDF8549002
:10C590004CF6456C4BF6E64645F6E659C2F2000C01
:10C5A000C2F20006C2F20009CDF8E4C01196CDF83F
:10C5B0001C9146F2204C4BF67D5648F6F809C2F223
:10C5C000000CC2F20006C0F60109CDF82CC052964C
:10C5D000CDF8909144F2136C43F2600645F63C5955
:10C5E000C2F2000CC2F20006C2F20009CDF8A8C0E7
:10C5F0004896CDF82C9145F6784C45F6E85644F22D
:10C60000FF59C2F2000CC2F20006C2F20009CDF8D6
:10C6100018C12896CDF8909046F2CC4C4BF61056A7
:10C6200046F23049C2F2000CC2F20006C2F2000922
:10C63000CDF848C02E96CDF8889043F2F56C4CF2B8
:10C64000286646F67429C2F2000CC2F20006C2F255
:10C650000009CDF8F4C03196CDF8C8904CF2246CA6
:10C6600046F680264CF22A69C2F2000CC2F200069D
:10C67000C2F20009CDF8D0C03396CDF810914CF23B
:10C680008A5C46F694264CF22669C2F2000CC2F28D
:10C690000006C2F20009CDF894C04196CDF80C9185
:10C6A00046F6A02C46F21E1946F2B446C2F2000C21
:10C6B000C2F20009C2F20006CDF808C1CDF8DC9044
:10C6C0005A9646F2B646C2F20006509646F2B24973
:10C6D0004CF2A156C2F20009C2F20006CDF83C911C
:10C6E00060964BF67E594CF66C66C2F20009C2F2B7
:10C6F0000006CDF8A8912C9643F2FE6948F2F006A8
:10C70000C2F20009C0F60106CDF8F89196964CF2F7
:10C710002C6C4BF20D1945F6E756C2F2000CC2F232
:10C720000009C2F20006CDF834C1CDF86C916F96C5
:10C7300043F6445C46F2314943F23056C2F2000CF3
:10C74000C2F20009C2F20006CDF874C1CDF8BC9067
:10C75000549643F2460C46F2B04946F24846C2F2BD
:10C76000000CC2F20009C2F20006CDF888C1CDF873
:10C7700060915C9646F2B14C44F2286948F2041686
:10C78000C2F2000CC2F20009C0F60106CDF8A4C145
:10C79000CDF87891979643F2540C43F25F6948F2D2
:10C7A000A806C2F2000CC2F20009C0F60106CDF8DC
:10C7B000B0C1CDF83891709643F2A85946F2334C87
:10C7C00043F2FA66C2F20009C2F2000CC2F200069D
:10C7D000CDF85C91CDF848C2809643F26A6943F285
:10C7E000FC6C46F23246C2F20009C2F2000CC2F200
:10C7F0000006CDF8A091CDF88CC1869646F2354959
:10C8000046F2344C46F23D46C2F20009C2F2000C38
:10C81000C2F20006CDF82092CDF834C2789646F2E6
:10C820003A4943F2606C43F2A056C2F20009C2F2E8
:10C83000000CC2F20006CDF8FC91CDF898C17996B3
:10C8400046F23946C2F20006729646F23B4946F27B
:10C850003846C2F20009C2F20006CDF810928A965C
:10C8600046F23C4C44F2096946F23E46C2F2000CE4
:10C87000C2F20009C2F20006CDF830C2CDF81C9217
:10C88000859646F2374C46F2364943F64356C2F295
:10C89000000CC2F20009C2F20006CDF8D4C1CDF8F6
:10C8A000F4917B9646F2241C44F2146943F24A0642
:10C8B000C2F2000CC2F20009C2F20006CDF83CC27E
:10C8C000CDF8CC91919643F63C5C43F2300943F2AB
:10C8D000A156C2F2000CC2F20009C2F20006CDF865
:10C8E00004C2CDF8AC916D9644F2156C46F2404905
:10C8F00044F20E66C2F2000CC2F20009C2F2000657
:10C90000CDF808C2CDF8B891899646F2464C46F269
:10C91000EC0947F69466C2F2000CC2F20009C0F6B8
:10C920000106CDF894C1CDF89C91719646F2201C79
:10C930004BF6104948F20816C2F2000CC2F2000988
:10C94000C0F60106CDF838C2CDF8F09198964CF6B5
:10C950004C6C4CF63E6948F20C16C2F2000CC2F266
:10C960000009C0F60106CDF840C2CDF85492999660
:10C9700043F280694CF28D5C43F28A06C2F20009F0
:10C98000C2F2000CC2F20006CDF8E891CDF814C155
:10C99000839646F2C84944F2116C43F21076C2F213
:10C9A0000009C2F2000CC2F20006CDF8DC91CDF80D
:10C9B00050C247F200198B9648F21016C2F20009D5
:10C9C000C0F60106CDF8D8919A9643F2480948F28C
:10C9D0002016C0F60106C2F2000945F6445CC2F218
:10C9E000000CDFF8B0E39B96CDF8AC9043F28D6677
:10C9F00042F605095B4646F20417CDF8ECC0C2F2D8
:10CA00000006C4F654390DF5207CD346AEF50B78FC
:10CA1000C2F200073F96CDF87092CDF810C09A464A
:10CA2000B4F9A031042B1EBF179E0023337029F0E8
:10CA3000A7FA002800F05586DDF8809099F80030BC
:10CA4000002B00F04E86DDF850C001238CF800303A
:10CA5000DDF82090B4F8F03199F800101AB246F2DF
:10CA6000C6468A42C2F2000600F0BB86062A00F0E3
:10CA700085871AB2052A3CDCDDF820C09CF800103E
:10CA8000052936D943F22013C14AC2F20003987C2B
:10CA900012F8011FDFF800E340F0020072459874BD
:10CAA000198203F15003F2D1AB8B6A8BA4F89C304E
:10CAB000A4F84C2001203DF003FCAB7F002B01F0DB
:10CAC000A8842A8C0C9E6B8C95F82410328095F8E3
:10CAD0002F20B38046F2002385F82510C2F2000310
:10CAE00012B1012283F826201FF0B2FDB4F8F03114
:10CAF0001AB2B4F9401204291CBFDDF8209089F85D
:10CB00000030062A02BF6423A4F84C30A4F89C30FD
:10CB1000B4F900310B2BC4BF012385F828300FDC9A
:10CB2000DDF84CC01F9E9CF80010002246F22E43F8
:10CB300085F828203280C2F20003002941F05A8093
:10CB40003FF022F8DDF8289089F800000520F7F77B
:10CB500081FB20B9DDF824C09CF80C3053B9069E47
:10CB600046F20C133288C2F2000392B212B14FF4B3
:10CB700016721A80DDF81890B9F8001089B20029F1
:10CB800000F009869BF8003093B1B4F9F03113B985
:10CB900029F0F6F960B129F0F3F920B1DDF834C0DD
:10CBA0009CF8003023B9288B3FF096F8A4F81802BF
:10CBB0002B7BDB070DD5B4F9F031062B01F0558442
:10CBC000D62300200B210C2223F006FA0F9E02230D
:10CBD000337043F011FF95F8253046F20026C2F27B
:10CBE0000006002B00F08785B4F8F031012B40F2ED
:10CBF0008285052B00F07F850220F7F72BFB0028AC
:10CC000040F07485B8F90432559EDDF858C006EB43
:10CC100043030CF101021B8B92B29342169221D274
:10CC2000B8F94032042B02F00987DDF830C19CF8D6
:10CC3000003023B1B8F95432082B03F01585DDF824
:10CC40003090B4F84C20B4F89C30A9F80020A9F832
:10CC5000043001203FF0C6F823F012FC4FF0000C26
:10CC6000CDF858C0DDF864C04CF28C569CF800300A
:10CC7000C2F200064BB1DDF89CC0BCF800901FFA70
:10CC800089F9B9F1000F01F07D802B78D3B99BF8B9
:10CC90000030BBB194F85A3394F8BA1223F002036F
:10CCA00094F8CE2284F85A3394F86E3321F00201BE
:10CCB00022F0020223F0020384F8BA1284F8CE2292
:10CCC00084F86E331A9EDDF84090328846F20A13DB
:10CCD00092B29145C2F200034FD0DDF860C01988CE
:10CCE000BCF80020269E002389B206203280ACF8D2
:10CCF00000301091F7F7AEFADDF874904CF65666F6
:10CD0000B9F80030C2F200062833984206D806204F
:10CD1000F7F7A0FA3388283B984216D23EF0D0F8B5
:10CD20000620F7F797FADDF874C094F83810ACF8DD
:10CD30000000B4F94C2000203EF054F8012094F893
:10CD40008810B4F99C203EF04DF826F0DFFE2B78D9
:10CD5000012B00F0AC8383B9DDF88C9099F800309A
:10CD60005BB9DDF84CC09CF80030002B01F0A383C8
:10CD7000389E3378012B01F09E8329F001F968B1C8
:10CD8000DDF8A49099F80030032B40F2F68705E017
:10CD90000F6200204C33002013620020DDF81CC01D
:10CDA00046F208139CF80020C2F2000302F00F02C2
:10CDB000072A0BD995F831101B78012946F2002279
:10CDC000C2F2000204BF002382F83130079E33789C
:10CDD000337803F00F03072B00F29A8495F8312083
:10CDE00046F20023C2F20003002A40F0918493F837
:10CDF0003210012002290DBFDDF8B490DDF8B4C077
:10CE0000013183F8322018BF83F8321083F83100E3
:10CE10000CBF89F800008CF8002028F075FDB4F9EB
:10CE2000A031042B01F003834FF4A053C4F200039C
:10CE3000B8F9B411DDF8F8C01A8D3CF8113092B28F
:10CE400002FB03333A9EC3EB431203EB82033360CE
:10CE500025F0AEFA2B7846F20026012BC2F200062E
:10CE60000CD0DDF88CC046F2C7499CF80020C2F215
:10CE70000009002A41F0F083022B0DD0DDF84C9020
:10CE800099F80030002B00F04384DDF8E09099F829
:10CE90000030012B00F035840220F7F7DBF9002881
:10CEA00041F02080B4F9F031042B18BF022B41F07F
:10CEB0001980139E337833B1DDF8589199F800301A
:10CEC000002B41F00F80DDF8C090012389F800307D
:10CED00095F8009046F20026B9F1020FC2F2000662
:10CEE00018BF4B4600F0F383002B40F0F7832AF085
:10CEF000B5FC059E337846F24426092BC2F20006A3
:10CF000016D0DDF83890B9F800309BB2042B00F24F
:10CF10004B86DDF838C046F21016BCF80030C2F27D
:10CF200000069BB223B133889BB2042B41F2C6802A
:10CF30009BF80030002B00F0F280DDF83CC04CF292
:10CF400092529CF80010C2F2000219B1022B04BFE9
:10CF50000131117040F09AF82A7B46F20023D6077F
:10CF6000C2F2000303D51B78002B41F05C8200263F
:10CF700095F82530B34200F04E850136042EF7D1E6
:10CF80002B7B46F200269807C2F2000640F1448748
:10CF9000590740F13C871A0740F1348703F010032A
:10CFA00003F0FF0033B9B4F94032042B18BF01205D
:10CFB0003EF018FF23F064FA002025F065FC2B7B7F
:10CFC0009E060FD5B4F904221B9E0A2A3178D8BFD9
:10CFD000DDF8E49041F00101D8BF02223170D8BFE2
:10CFE00089F80020580610D5B4F90432DDF86CC079
:10CFF0000A2B9CF80020D8BF399E42F00202D8BF0D
:10D0000002238CF80020D8BF3370DDF844C0159996
:10D0100000239CF8006009788CF80030DDF854C0DB
:10D020004BF6E649C2F2000921918CF8003023F05A
:10D0300095F8002800F0B386DDF844C09CF8003075
:10D04000B34200F0D686B4F94032042B0CBF002066
:10D0500001203EF0C7FEDDF814C09CF80030032B21
:10D0600000F2048503EB830304EB031393F84E20D3
:10D0700042F0020283F84E20DDF838C0BCF80030E0
:10D080009BB22A2B40F22B852B78002B00F0D78403
:10D0900094F8BA1294F8CE2294F86E3341F002015B
:10D0A00042F0020243F0020384F8BA1284F8CE225E
:10D0B00084F86E330D9E9BF800203378022B02BF5C
:10D0C0002B8BDDF81C9189F8003043F25E63C2F2CD
:10D0D00000030AB1013A1A70DDF8A8C00123002646
:10D0E0008CF800302E733EF04FFDDDF81490DDF823
:10D0F00028C099F800308CF80000092B00F09186C8
:10D10000DDF8A0C045F6E8569CF80030C2F20006F3
:10D110002BB1B4F95091B9F1000F01F07E812B7859
:10D1200023B9129E3378002B40F03286B4F90422E2
:10D13000DDF8489000230A2A89F800300DDDDDF87B
:10D1400090C044F2FF529CF80010C2F20002032982
:10D1500000F05E84012900F05A84B4F95031012BAB
:10D1600000F0258328F00CFF70B10D9E33785BB979
:10D17000DDF8B890B9F80030B3F5BE7F9EBFDDF89A
:10D18000F4C002238CF8003095F82530C3B1B4F810
:10D19000F02112B9229E317891B1DDF8149099F8FE
:10D1A0000010072900F0BB85B4F84022002A00F0E7
:10D1B0001B8311B2042901F0DB80012900F0838375
:10D1C00026F076F89BF8003046F20026012B08BFC7
:10D1D0002B7BC2F2000604BF43F008032B7395F8C3
:10D1E0003430002B40F0F2829AF8003046F22316D9
:10D1F000C2F20006002B3FF413ACDDF818C0BCF8F7
:10D200000040A4B2002C00F0E384069E43F22014F8
:10D21000C2F200044FF416733380A1460026B9F918
:10D22000103009F15009002B00F075820136042EF0
:10D23000F5D19AF80030DBB2012B00F0E0849AF8C7
:10D240000030062B02BF40F6B8333B8040F6C419CD
:10D2500000F05E819AF80030022B00F08F869AF879
:10D260000030032B04BF40F2DC533B8000F0B88158
:10D270009AF80030092B01F030809AF80030052B25
:10D2800001F02C819AF800300A2B01F0FE819AF807
:10D290000030072B01F0E7839AF80030042B01F0EF
:10D2A00009849AF80030082B01F029859AF80020AB
:10D2B00046F22313092AC2F200030AD01B780A2B74
:10D2C0001FBFDDF8B0C02F9E00238CF8003018BFC0
:10D2D0003370B8F90031DDF824C00B2B1EBFDDF828
:10D2E000AC901923A9F800309CF80030042B00F012
:10D2F000CB87B8F81030002B40F01182B8F96020CD
:10D30000002A40F00C82B8F9B020002A40F00782D1
:10D31000B8F8001108B2092840F301820D28A1F1E4
:10D320000C01C8BFA8F8402201299CBF0123A8F81E
:10D3300040320223012088F8423288F8563288F8B9
:10D340006A323EF04FFD059E337846F24426052BA7
:10D35000C2F2000600F0C9849BF80020022A53D0D4
:10D36000062B00F0EA852A7B072B42F004022A7381
:10D3700000F0F885032B01F20C879AF8001046F2B2
:10D3800023120929C2F2000209D011780A2906D015
:10D390001278052A03D02A7B42F010022A73032B4D
:10D3A00012D8DDF82C9019F80320022A0CD89AF82C
:10D3B000001046F223120929C2F2000200F0938302
:10D3C00012780A2A00F08F832A7B42F002022A7325
:10D3D000032B40F28883062B00F0BD83B4F8F031B4
:10D3E000042B01F04B80B4F9503143B9DDF8ECC0A7
:10D3F0004AF65523BCF800209A4201F03D84059E70
:10D40000012233788BF80020052B00F03C84B4F91E
:10D41000A021082A00F07A842A7B42F008022A73AD
:10D42000052B00F05D843EF0AFFB95F8363083426B
:10D430001FD03EF0A9FB90B1DDF814C09CF800307D
:10D44000092B09D003EB830304EB0313B3F9383042
:10D45000022B01D03EF01EFB3F9EFF2333703EF0B7
:10D46000DDFFB4F94032042B0CBF002001203EF058
:10D47000B9FC3EF089FB238A85F836001AB2002AEF
:10D48000C4BFDDF8249089F85030B4F860301AB287
:10D49000002AC4BFDDF824C08CF8513000238AF87C
:10D4A00000303EF071FB0A9E3070FFF7B9BA239E40
:10D4B0003278002A41F05B82DDF844C1CCF80020CC
:10D4C0002D9E012333700026F0B2013628F010FEA5
:10D4D000092EF9D10220F6F7BDFE002840F0D085D4
:10D4E000B4F9F031042B18BF022B40F0C985DDF8E8
:10D4F000E09099F80030012B00F0BB85309E0123AD
:10D5000033702B7827E4F6F7A5FE820400F1388704
:10D510003B8804209BB24B45F5D87D203DF092F925
:10D5200046F20419012025F0AFF9C2F2000904E027
:10D530000420F6F78FFE83041BD43B889BB2002B9C
:10D5400001F05D80B9F8003040F6C41C9BB2634521
:10D5500001F25580B9F8003040F6461C9BB2634595
:10D56000E6D8002025F090F90420F6F773FE830436
:10D57000E3D5B8F84032023B9BB2012B7FF696AE62
:10D58000059EDDF82C90337895F8251019F80320C6
:10D5900003EB83031B0102EB820203EB8202424492
:10D5A000907C46F2002340F002009074C2F2000327
:10D5B00011B1002283F8252098F86A32DDF814C0F2
:10D5C00043F002030B9E072288F86A3202238CF88C
:10D5D0000020F3716AE6F6F73DFE820501F19880BE
:10D5E0003B8804209BB2B3F57A7FF4D87D203DF0D0
:10D5F00029F946F20419012025F046F9C2F2000982
:10D6000004E00420F6F726FE83051AD43B889BB27B
:10D61000002B01F0D082B9F800309BB2B3F57A7FCD
:10D6200001F2C982B9F8003040F26A3C9BB263450E
:10D63000E7D8002025F028F90420F6F70BFE830533
:10D64000E4D5059EDDF82C903378B8F9000119F87F
:10D65000032003EB830102EB8206090101EB860143
:10D6600041448E7C0B2846F002068E740DDDDDF8F9
:10D670004CC09CF8001011B9569E317829B1032B8B
:10D6800003F04F800A2B03F06B8028F08FFC0028FA
:10D6900042F00C81B8F9F031062B02F00781059EAB
:10D6A0003378002B42F0FC800123AB7098F80632EF
:10D6B000DDF8149043F00303DDF82CC0062288F84F
:10D6C0000632012389F800208CF80630EEE5DDF8FB
:10D6D00024C09CF80020042A01F05B8726F024F97E
:10D6E00005E4149E00233370FFF7B2B9B8F9403255
:10D6F000042B01F0D3804FF00009CDF85890FFF7CC
:10D70000B1BADDF858C19CF80030002B7FF4C4ABEF
:10D710002B78FFF7E9BBF0B225F090F886E5B8F971
:10D720004022042A7FF40FAE98F8F211022211432E
:10D7300088F8F211A8F8F02113B90123A8F81030E5
:10D74000B8F9603013B90123A8F86030C649002247
:10D75000A1F5A0742346A8F8B020A8F800219A7C6F
:10D76000503342F0020203F83E2C8B42F7D194F87A
:10D770003A3094F88A2043F0020342F0020284F81F
:10D780003A30022384F88A2084F8423284F85632F0
:10D7900084F86A32D7E50220F6F758FD14200121FB
:10D7A000F6F754FDB4F95031012B7FF4DBAC0320C4
:10D7B000F6F750FD002800F0FD8694F85221022370
:10D7C0001A4384F85221A4F85031CBE40123A4F881
:10D7D000503140F037F90023A4F8503186F8343046
:10D7E00002E51AB2FFF785B9DDF8C490B4F9380044
:10D7F000B9F90060DDF8D090B4F84C10B9F900C068
:10D80000DDF8C890C6EB0C0C19F900E0DDF8CC90FF
:10D8100076445B000FFA81FE39F8100003FB0CF32D
:10D82000CEEB060600FB06F003F1070C33EA2303F8
:10D8300028BF634600F2FF3630EA200028BF30469A
:10D8400001EBE301DDF878C001EBA02189B20FFA0A
:10D850008CF00BB2461DB3420ADC0538834207DB6D
:10D86000259E337823B9DDF8889099F80030BBB154
:10D8700012B2DDF830C0042AACF800100CBF002052
:10D8800001203EF0AFFA22F0FBFDDDF83090259E3E
:10D89000B9F800900023B4F840223370CDF87890A6
:10D8A00012B2012A08BF95F825300CD0042A7FF463
:10D8B00087ACDDF8F0C0BCF80030012B7FF480AC01
:10D8C00095F825300422DDF81091B4F98860B9F993
:10D8D0000000DDF804C1DDF80C911CF906E0B4F895
:10D8E0009C10B9F900C0DDF80891864439F816603B
:10D8F000C0EB0C000FFA81FCCCEB0E0E06FB0EF613
:10D900005B0003FB00F306F2FF3036EA260628BF71
:10D910000646D81D01EBA62133EA230328BF0346A0
:10D92000DDF870C001EBE3039BB20FFA8CF019B283
:10D93000461DB1420CDC0538814209DB259E317859
:10D9400031B9DDF8889099F8001000293FF438AC1F
:10D9500012B2DDF830C0042AACF804300CBF00204D
:10D9600001203EF03FFA22F08BFD0C9EDDF89490F2
:10D97000B68800231C9689F8003021E401203CF091
:10D980009FFC3378DDF8D4C0052B9FBFB8F84C203E
:10D99000B8F89C306A83AB83228AB4F860302A746A
:10D9A0006B74B4F8B020B4F80031369EAA74EB74EE
:10D9B00087226423002033708CF8002024F086FE38
:10D9C000012024F083FE2B78AB77002B00F07F84BE
:10D9D000DDF830900023B9F80420B9F80010DDF824
:10D9E00034901C9385F8263095F825306A8499F890
:10D9F0000020002685F82430022385F825301E9665
:10DA0000298485F82F20B4F8F031FFF732B80323CA
:10DA10001370FFF7A2BBB4F8402206EB46030DF5E6
:10DA2000227E0EEB430302F5A062009392B240F215
:10DA30006D10D82133461EF0A1FBFFF79EBA059E5C
:10DA40003278082A00F004850A2A7FF433ABDDF827
:10DA50002CC046F220429CF80A10C2F200020229B1
:10DA600008BF9372FFF726BB60320020072B40F0FF
:10DA700020830B9EF379032B7FF4FEAADDF834900C
:10DA800099F80020A2B1DDF848C19CF80020D10728
:10DA90000ED50A9EB4F8F01132784AB98AB2511FF5
:10DAA000012905D9012A03D9B8F90422092A04DD7C
:10DAB000DDF82C90002389F8073003EB830304EB97
:10DAC000830393F84222DDF838C042F0020283F863
:10DAD0004222BCF800309BB22A2B3FF6D5AA1EF09A
:10DAE000B7FDFFF7D1BADDF82CC01CF80330032BCB
:10DAF0007FF474AC9AF8002046F22313092AC2F28C
:10DB0000000303D01B780A2B7FF468AC002094F844
:10DB10003810B4F94C203DF065F9012094F88810D4
:10DB2000B4F99C203DF05EF9B4F9F031062B0DD02C
:10DB3000B8F800310A3B9BB2012B42F21C80DDF8A1
:10DB400060C19CF80030002B42F0C984059E3378F8
:10DB5000062B7FF443ACDDF82C9099F80630022BAD
:10DB600000F0B282B4F8F031022B18BF042B7FF41E
:10DB70003AACDDF82C9099F80620012A7FF430ACFD
:10DB80009AF8001046F223120929C2F2000203D0CB
:10DB900012780A2A7FF424ACDDF8B4C001238CF893
:10DBA00000303FF0CBFE19E46B7BDDF824900021C0
:10DBB00009EB83031A695F200B46009240F205428D
:10DBC0001EF0DCFA3378092B7FF4A3A9FFF7B0B974
:10DBD00001203CF0D9FB34701EF03AFD0F9C03236A
:10DBE000237028F0CDF900283FF40FAB24F0D8FFC4
:10DBF000FFF70BBB1A703FF069FAFEF7A1BFDDF823
:10DC00008890DDF83CC099F8001040F2DC5046F2F4
:10DC1000304201298CF800303880C2F2000240F214
:10DC20009B82379E0023137033803AF04FF9B8F986
:10DC3000F03193B195F8263046F20026C2F2000684
:10DC4000002B01F06082012B0ABF95F82700288B7A
:10DC500028833EF041F8A8F81802DDF83CC1509E38
:10DC60009CF80020DDF83491337889F80020002BEF
:10DC700041F040803FF0C4F83EF0D0FB00203CF083
:10DC800083FBFFF713BB9AF8001046F22312092911
:10DC9000C2F2000203D012780A2A7FF4B8ABDDF892
:10DCA0002CC09CF80530012B12D0002B7FF4BBABAD
:10DCB0009AF8002046F22313092AC2F2000303D087
:10DCC0001B780A2B7FF4AFAB3EF004FDFFF7ABBB34
:10DCD000022028F0D5F8059E3378052B7FF4A3ABFE
:10DCE000DDF82C9099F80530DFE7DDF82C9099F8F5
:10DCF0000520032A01F02A809BF80020022AC2D0C6
:10DD00002A7B42F004022A73FFF745BBDDF8149129
:10DD100099F80020002A7FF483ABFFF77DBBDDF884
:10DD20002CC046F220419CF80700C2F200010228F4
:10DD30007FF43AAA023A022A00F23286B4F90422A7
:10DD4000092A00F32D86529E3278D20740F12886A8
:10DD5000DDF8289099F80020002A40F0218603225F
:10DD6000CA7102EB820204EB820292F8421241F085
:10DD7000020182F84212FFF717BA012028F0FEFFD5
:10DD8000FFF70CB822F07CFB86F80090FEF77DBF11
:10DD900022F042F901238BF80030FFF7C7B922F0D7
:10DDA000F9F900287FF448A922F012FA00287FF43C
:10DDB00043A9B4F9F031062B3FF43EA9B8F910306D
:10DDC000DDF844C0022B18BF042B04BF012389F8DF
:10DDD0000030B4F96030022B18BF042B02BFDDF80D
:10DDE0005490012389F800309CF80030B3427FF44E
:10DDF0002AA9159EDDF8849033784B457FF423A93A
:10DE0000FFF729B93EF066FC2B7BFFF7C7B83EF061
:10DE100005FB2B7BFFF7BFB83EF0F2FF337BFFF72C
:10DE2000B7B8DDF82C9099F80930032B7FF468A976
:10DE3000B4F90833072B01F01C82DDF890C103EB25
:10DE400083030CEB4303489E59789A78DB78317052
:10DE50007270B37095F8333046F20026C2F20006B5
:10DE6000002B41F0FC8143F26000C2F2000039F067
:10DE700051FEB4F81C23DDF818C113B203EB4301C3
:10DE800003EB81011CF8011029B9002BC4BF02F17A
:10DE9000FF32A8F81C23469E337843B94699DFF831
:10DEA000CCC41CF80320CA5401330D2BF7D1DDF884
:10DEB0002C91B9F8003073B1469E96F8B63053B93C
:10DEC0003046DFF8A894C21819F8031001330D2B5F
:10DED00082F8B610F5D100200146022220F0FEFAA9
:10DEE000FFF70EB9B4F904320A2B00F3E381082BD3
:10DEF00006DDDDF84CC19CF80030012B00F0DA8122
:10DF0000DDF828C1012302208CF80030F6F7A2F9D1
:10DF100070B9139E33785BB1DDF8E09099F800306A
:10DF200033B9DDF858C19CF80030002B42F00E8464
:10DF3000309E00233370FEF7CBBFDDF82CC09CF879
:10DF40000620002A40F0A4819AF8001046F223121D
:10DF50000929C2F200023FF405AE12780A2A7FF4C2
:10DF6000CFAEFFE5B4F9401203297FF706AA0B9E56
:10DF7000F17901293FF610AAFFF7FFB9DDF81490F7
:10DF8000DDF83CC099F800200123092A8CF8003004
:10DF900000F0438640F2DC533B8004E0F6F75AF988
:10DFA000C00500F10F833B8804209BB2B3F57A7F54
:10DFB000F4D87D203CF046FC46F20419012024F000
:10DFC00063FCC2F2000904E00420F6F743F9C1053E
:10DFD0001AD43B889BB2002B00F0E984B9F80030DA
:10DFE0009BB2B3F57A7F00F2E284B9F8003040F2D8
:10DFF0006A3C9BB26345E7D8002024F045FC04202E
:10E00000F6F728F9C105E4D5B8F9A031062B01F0DF
:10E010005086D5485A210023009040F205420F2037
:10E020001EF0ACF84FF4617005F0C2FE0023022030
:10E0300004218AF80030F6F709F99AF8002046F230
:10E040002313C2F20003002AF7D00022629E1A7046
:10E0500010460123337024F017FCDDF81890DDF82A
:10E0600014C04FF41673A9F800309CF80030FFF785
:10E07000D7B9DDF858C19CF80030002B3FF43EAA18
:10E08000B4F904320A2B00F36E84082B04DD539E8E
:10E090003378012B00F06784DDF82891012389F89B
:10E0A0000030DDF8C0C000238CF800302B78FEF77C
:10E0B00052BE092B3EF4E8AFFEF7DEBF1EF0C8FAF1
:10E0C00000233380FEF734BF9AF8002046F2231372
:10E0D000092AC2F2000303D01B780A2B7FF442AD59
:10E0E000B4F95031BBB9B8F9F031022B18BF042B89
:10E0F00002F09F82B4F90432072B0CDC288B3DF030
:10E10000EBFD0123A4F85031A4F818023FF09AFC6B
:10E110000023A4F8503127F033FFB0B1DDF834C04C
:10E120009CF800308BB92E9EB4F91822318802F287
:10E130007B129142CDBFDDF8F490DDF8F4C00223EC
:10E1400089F80030D8BF8CF80030059E3378062B54
:10E150003FF408ADFFF742B9DDF8DCC0BCF80010B1
:10E1600089B201B11370DDF8DC901923A9F80030F1
:10E1700004E0F6F76FF8430400F1A5833B88042020
:10E180009BB2B3F57A7FF4D87D203CF05BFB46F27E
:10E190000419012024F078FBC2F2000904E00420F5
:10E1A000F6F758F841041AD43B889BB2002B00F0D4
:10E1B0007585B9F800309BB2B3F57A7F00F26E85B1
:10E1C000B9F8003040F26A3C9BB26345E7D80020C2
:10E1D00024F05AFB0420F6F73DF84104E4D5059EEF
:10E1E000DDF82C90337819F8032003EB830302EB5E
:10E1F00082021B0103EB820343449A7C42F0020239
:10E200009A7427F0D3FE002841F0C282B8F9F031A9
:10E21000062B01F0BD82059E96F8009046F244263A
:10E22000C2F20006B9F1000F01F0AB84B9F1010FA1
:10E2300041F0C184DDF82CC09CF80110022902F0E5
:10E240004A87B8F90031092B42F37A824B4698F895
:10E25000621003EB830241F0020108EB021288F81E
:10E26000621092F83A0098F8121040F00300DDF8BE
:10E270002C9041F0020182F83A00022288F8121034
:10E2800009F80320FFF712B823F05AFFFFF731B85F
:10E29000012A7FF435AD9AF8001046F223120929BD
:10E2A000C2F200023FF477A812780A2A7FF428AD60
:10E2B000FFF771B8139E337833B1DDF8E09099F829
:10E2C0000000002800F0C7873FF038FB30E624F05C
:10E2D000C3F824F035F9FFF77BBBB8F9F031002B18
:10E2E00040F0ED8027F04CFE002840F0E880DDF89B
:10E2F000149099F80030062B01F0A180B8F90021A4
:10E300000B2A02DD032B00F0CE87DDF84C9099F844
:10E310000020002A00F01C84062B01F09E80DDF80E
:10E32000B09099F80020012A00F01486022A40F0EB
:10E330003184012B40F22E84062B01F0FD83DDF8A1
:10E340008CC14FF61A42BCF80010CFF6FF7208B22B
:10E35000904243F2FC63C2F20003A4BF01F1FF311B
:10E360001980FEF7A3BF00BF2080010808800108C4
:10E370003C9E318800293FF437AA0B46FFF79DBA2F
:10E38000B8F840320122023B9BB2DDF83CC0934218
:10E390008CF800207EF68AAF059EDDF82C9033784D
:10E3A00095F8256019F8031003EB8302120101EBC5
:10E3B000810002EB8000404490F812E046F2002217
:10E3C0004EF0020E80F812E0C2F20002002E40F081
:10E3D000B684022082F825001C961E960246DDF8BF
:10E3E00030C19CF8000020B1B8F95402082801F0AF
:10E3F000E581032A84BF012285F82520072B7EF4BE
:10E4000055AF02297EF452AF0B9E0023F371FEF745
:10E410004DBF23F033FFFEF754BB3BF0BDFD86F844
:10E420000090FEF77CBE24F017F8FEF7A0BDB8F907
:10E43000B421499EDDF8E89006EB82035B8836F84C
:10E44000222002FB03335B10C9F80030FEF700BD49
:10E45000DDF82C9046F2204299F80810C2F2000232
:10E46000022908BF1372FEF725BE00204FF4C871C1
:10E47000D622D72321F0B0FDFEF7A2BB01203DF04C
:10E4800075F8DDF83490DDF890C099F8006001214E
:10E490008CF80010002E7EF4A6AFB4F904320A2BDB
:10E4A0003EF7A1AF0620F5F7D1FEDDF8B890A9F848
:10E4B0000060FEF798BF3FF041FAFEF75EBC27F020
:10E4C0005FFD30B1DDF8349099F80030002B7FF417
:10E4D0000EAFDDF814C09CF800300FE7DDF814C073
:10E4E000DDF83C909CF800300122092B18BF40F267
:10E4F000DC5389F8002018BF3B8006D100F06DBDC9
:10E50000F5F7A8FEC30400F115853B8804209BB2F3
:10E51000B3F57A7FF4D87D203CF094F946F20419E3
:10E52000012024F0B1F9C2F2000904E00420F5F75B
:10E5300091FEC2041AD43B889BB2002B00F03E85AA
:10E54000B9F800309BB2B3F57A7F00F23785B9F89D
:10E55000003040F26A3E9BB27345E7D8002024F0B9
:10E5600093F90420F5F776FEC204E4D52A7846F242
:10E570000023C2F20003002A01F0D184099E00208A
:10E58000317883F82C00032983F82D0002F22C83C4
:10E59000022A03F06486B8F9F0214B1CDDF824C090
:10E5A000DBB2062A8CF8003003F0518623F0C8FF56
:10E5B000FEF77CBE0220F5F74DFE00283FF4FDA8D3
:10E5C000FEF7D0BDDDF84C9099F80060002E7EF487
:10E5D0006DAE95F8009046F20023B9F1020FC2F239
:10E5E000000301F07981B9F1010F01F0F482B9F172
:10E5F000000F01F08F8223F02FFFFEF757BE3C2063
:10E600003CF020F93B889BB2002B7EF423AEDDF872
:10E610001490012299F80000DDF83CC046F244292C
:10E6200090428CF80020C2F2000941F26D84062865
:10E6300001F0248209283EF40DAEDDF8B0C04CF69E
:10E640006C639CF80020C2F20003002A01F0848071
:10E6500000221A70FEF73DBEDDF800C10123042040
:10E660008CF8003027F044FD3378409E0022022BC6
:10E6700032703EF411AC012B3EF400AC99F800303E
:10E68000002B7EF409ACFEF7F9BBB8F9F031002B92
:10E6900040F0798127F074FC002840F07481DDF8A7
:10E6A000149099F80030062B01F0BF81B8F90021D1
:10E6B0000B2A02DD032B01F06081DDF84CC09CF8D1
:10E6C0000020002A00F0FF83062B01F02D812C9EF4
:10E6D0003378012B00F0A585022B40F08083059E46
:10E6E0003378012B40F27B83062B01F0DF83DDF8CA
:10E6F0008C9140F2E631B9F8002043F2FC6310B28D
:10E700008842C2F20003DCBF01321A80FEF7CEBDA0
:10E71000DDF814C0DDF82C909CF8001019F80160A9
:10E7200001EB810306EB86021B0103EB82034344EA
:10E730009A7C092942F002029A7400F00E8505299C
:10E7400000F0EC84022900F0AF86032941F04883F1
:10E75000DDF82CC046F220439CF80320C2F20003EF
:10E76000002A40F03287B8F900210B2AC4BF0122E9
:10E77000DA703EF79BAD4FF00202DA703EF496ADD0
:10E78000DDF848C19CF80030DB070ED50A9EB8F8CA
:10E79000F02133784BB992B2531F012B05D9012ACE
:10E7A00003D9B8F90432092B02DD072900F0FF86EE
:10E7B0002B78002B40F0D38201F0FD02082A40F0B4
:10E7C000CE82DDF82CC046F220421CF80100C2F2D5
:10E7D0000002012801F0D8870B9E8800735C421864
:10E7E00003EB8306120102EB8602424492F812E028
:10E7F000022B98BF013346F220464EF0020E82F8FB
:10E8000012E0C2F2000694BFDAB200220529725467
:10E8100001F0CB82134600EB010E4FEA0E1E03EB14
:10E8200083060EEB86064644B67A16F0800F41F05A
:10E83000CC8216F0010F09D04318DDF82CC008EB8C
:10E84000031300229E7A0CF801201346B60740F10C
:10E850008787092900F08787052902D00B9E0023AE
:10E8600073544218120103EB830302EB8303434406
:10E870009A7C42F001029A74002027F0A5FB002840
:10E880003EF414ADDDF87091DDF85CC199F800300C
:10E890004E9E1CF813303370FEF708BDDDF8F09083
:10E8A000B9F80030002B41F0978096F8303043F0F3
:10E8B000010386F83030032B02BF002385F8303087
:10E8C0001693FEF7CFB998F85221B8F9503142F0BB
:10E8D000020288F8522133B9DDF888C09CF8003074
:10E8E000002B00F04F8600235D9EA8F85031337056
:10E8F00027F046FB002840F07B852A7BB8F9F031F1
:10E9000042F06002022B2A7300F0818201203CF069
:10E910002DFEB8F9F031022B18BF052B0FD0DDF812
:10E9200048C19CF80020560709D40D9E3278002A71
:10E9300041F07B83B8F90422052A00F3C082042B3E
:10E9400040F06A8202203BF095FF21F009FB139E04
:10E950003378002B3EF4AAACDDF88091022389F8CD
:10E960000030FEF7A3BC3EF0E9FFFFF79ABBDDF8ED
:10E970000091042089F8003027F0BAFB002389F8C1
:10E980000030FEF79DBD27F0FBFA20B10D9E3378D5
:10E99000002B7FF484AEDDF814C09CF8003085E6CF
:10E9A000DDF82CC000228CF80720FFF7DAB93C20F4
:10E9B0003BF048FF3B889BB2002B7EF450ACDDF867
:10E9C00014C0DDF8A4919CF80020DDF82CC002EB07
:10E9D000820108EB011191F812E01CF802004EF0E0
:10E9E000020E81F812E091F826E099F800604EF0EE
:10E9F000020E81F826E0DDF8609191F83AE085F8A2
:10EA00002C2085F82D004EF00202DDF814C099F894
:10EA1000000081F83A2046F220420921A8F8E032AD
:10EA20000423A8F8F462C2F200028CF80010A8F8DF
:10EA30000833002841F023810123537298F8E21231
:10EA400098F8F62298F80A3341F0020142F00202E7
:10EA500043F0020388F8E21288F8F62288F80A33B5
:10EA60000326FEF7FCBBDDF8149046F2442399F828
:10EA70000020C2F200030C2A40F2448429780129C4
:10EA800000F0A88602291CBF0A221A707EF404AC8A
:10EA9000099E3178042902F0C6830E2A04BF102291
:10EAA0001A703EF4F9AB013A1A709AF80030042B50
:10EAB0007EF4F7AB0F9E012203F5BB6332703B80FF
:10EAC00004E0F5F7C7FB420600F157823B880420BB
:10EAD0009BB2B3F57A7FF4D87D203BF0B3FE46F2CB
:10EAE0000416012023F0D0FEC2F2000640F26A397B
:10EAF00004E00420F5F7AEFB430616D43B889BB236
:10EB0000002B00F0508333889BB2B3F57A7F00F27C
:10EB10004A8333889BB24B45EBD8002023F0B4FEE8
:10EB20000420F5F797FB4306E8D5002027F04CFAC0
:10EB3000002801F08482579800232021C154023319
:10EB4000102B4FF02002F9D14E9E3270FEF7AEBB73
:10EB5000062B7FF4E4ABDDF82C9099F80610002921
:10EB600000F08584DDF8B09099F80020012A7FF448
:10EB7000DDAB012940F0F481DDF8649199F80030B3
:10EB8000002B00F0ED81DDF86CC19CF80030002B0B
:10EB900000F0E681012027F017FA002800F02F840A
:10EBA000B8F81C331AB2002A40F3B186013BA8F82A
:10EBB0001C33FEF77BBB3C203BF044FE3B889BB202
:10EBC000002B7EF455ABDDF83491DDF83CC099F8AC
:10EBD000000001214CF22C628CF80010C2F20002FD
:10EBE000002801F05280DDF81490137099F800109D
:10EBF000709809291FBFDDF838C0062250236A73B8
:10EC000018BFACF800300090D821992040F205429E
:10EC100000231DF0B3FAFEF72BBBB8F90823042A32
:10EC20007FF4B8A9B8F9E062002E02F0DE810B9EF5
:10EC3000B8F81C93737A032B03F04A8724F0A6F9E3
:10EC4000DDF860C106469CF80030002B43F0998443
:10EC500098F8E21298F8F62298F80A3341F0020187
:10EC600042F0020243F0020388F8E21288F8F6222A
:10EC700088F80A33FEF7F3BA39F028F9B8F8180221
:10EC80003CF0D8FF28833DF0C9FB27F079F9002834
:10EC900000F088843EF0B4F8FEF7B1BB3C203BF0B6
:10ECA000D1FD3B889BB2002B7EF4C9AADFF8709A95
:10ECB000CC2659F8043F00200093B1B2034640F23D
:10ECC0000C420B3E1DF05AFA272EF2D14FF49670EB
:10ECD00005F06EF800238AF800309AF80030002B17
:10ECE000FBD0012318462B733BF0EAFA1DF0B0FC71
:10ECF000FEF7A5BA2B7023F0AFFBFEF7BBBFDDF824
:10ED0000149046F2442699F80030C2F200060C2B0B
:10ED100040F2CC842A78012A00F0D986022A7EF4B7
:10ED2000C5AADDF8249099F80020042A02F0758421
:10ED3000102B0CBF0E2301333370FEF7B7BA701CD3
:10ED4000C0B282F825000246FFF749BB3CF0CAFC7E
:10ED50002A7B337842F008022A73FEF7FDBA0C29A9
:10ED60007FF63AAD0D394800DDF850C143180CEB81
:10ED700083035A79012A7FF67FAD072A93F80BE0C7
:10ED800094BF4FF0000C4FF0010C4EF0020E042A1D
:10ED900014BF62464CF0010283F80BE0002A00F039
:10EDA000E2861A79032A41F2AB83549E431806EB9C
:10EDB000830300221A715FE5DDF82CC09CF8063051
:10EDC000012B40F03882599E3378002B00F03382BB
:10EDD000DDF86C9199F80030002B00F02C820120B6
:10EDE00027F0F2F8002800F00186B8F81C331AB2B8
:10EDF0000D2ACBBFDDF82CC10133BCF80030A8F8D8
:10EE00001C33C4BF0133ACF80030FEF74FBADDF855
:10EE1000A891012389F8003027F0B2F8002801F00A
:10EE20003182DDF8489199F80030580701F12282CB
:10EE3000DDF828C09CF80030002B41F0F280B8F9D2
:10EE40000432DDF8B4900A2BDEBF2E9E00233380FF
:10EE5000012389F800303EF071FDB8F80422B8F8BB
:10EE6000F03112B2022AC8BF1BB228DC002B3FF4DB
:10EE70006EAD042B3FF466AD0B236B733CF084FE48
:10EE8000002801F0DE83B8F90432DDF854C1B8F986
:10EE900018220CEB4303B3F85430C2F1960202FB84
:10EEA00003F348F2B512C1F64E3282FB03E2DB17E0
:10EEB000C3EB22130E9E9BB23380B8F9F031042BC2
:10EEC0007FF445AD3EE5062B7FF401AC0B9EB37994
:10EED000002B00F033852F9E3278002A3FF4F7ABE9
:10EEE000012B7FF4F4AB3CF04FFE00283FF4EFAB76
:10EEF000DDF864C19CF80030002B3FF4E8AB5B9E6A
:10EF00003378002B3FF4E3ABDDF8189246F232433E
:10EF100099F80020C2F2000351B20029C4BF02F1E7
:10EF2000FF321A703DF07AFADDF814C09CF8003018
:10EF3000FEF776BADDF8B0C04CF66C639CF80020A2
:10EF4000C2F20003002A00F0BD8282F003021A70B0
:10EF5000FEF7BFB9012B7FF61DAE062B00F09D8793
:10EF6000689E43F26A633278C2F200030AB1013A42
:10EF70001A703DF045FFFEF799B9DDF8149099F845
:10EF80000030032B06D1DDF82CC09CF80330012B98
:10EF900001F07A83002027F017F8002800F0228380
:10EFA000DDF870C1579E9CF80020DDF838912023D1
:10EFB00006F8123089F80030FEF778B93C203BF0B3
:10EFC00041FC3A8892B2002A00F02984DDF81490BE
:10EFD00099F80030092B7EF455A9719800210B4651
:10EFE000009040F20A52E6201DF0C8F8DDF81490B7
:10EFF00099F8003046F244299A00D11808EB011123
:10F00000B1F91010C2F20009002941F0CA83DDF8FD
:10F010002CC01CF80310032902F07D86D11808EBE0
:10F020000111B1F93810072902F27286DFE801F008
:10F030005B3C631E0A040438C826304638F018FDCD
:10F04000FEF720B90B9EF35C032B04F0E282DDF89F
:10F0500060C100238CF80030002023F0FBFFDDF8B6
:10F06000BC910023064689F80030E6E7134408EB1C
:10F07000031393F8240039F069FBDDF81490DDF8F0
:10F080002CC099F8003006461CF80320032AD4D07F
:10F0900003EB830308EB03139A8C01329A84CCE7C9
:10F0A00038F02EFA0646C8E7134408EB031393F82A
:10F0B000240038F0B5FADDF81490DDF82CC099F88A
:10F0C000003006461CF803204FF46170032A1FBF6E
:10F0D00003EB830308EB03139A8C013218BF9A8465
:10F0E00004F066FEA9E7134408EB031393F8240029
:10F0F00039F08EF8C1E7134408EB031393F82400AA
:10F1000039F0ACF9B9E7DDF86891B9F800003CF0E6
:10F1100091FD96F826303083FEF795BDB8F8A03102
:10F12000DA1F1BB2052B18BF012A8CBF0022012257
:10F1300000F2AE80DDF82CC046F220439CF805209A
:10F14000C2F20003002A40F028860122DDF82C904C
:10F150005A7199F80530FEF7A8BD032E7FF410AB65
:10F1600026F024FF20B10020324601461FF0B6F9F8
:10F1700098F8F622B8F9F03142F00202062B88F82E
:10F18000F62202F03285DDF814C09CF80010FFF77B
:10F19000D6BA0A2B7EF4FFA8B4F94022032A7EF7E0
:10F1A000ECA8FEF7F8B83C203BF04CFB3B889BB248
:10F1B000002B7EF476A8DDF848C14BF67D529CF812
:10F1C0000010C2F20002480743F2305300F1CA8631
:10F1D00041F00401C2F20003117003F16001DA7D15
:10F1E0000C3342F00202DA728B42F8D1059E912074
:10F1F00033789B9E092B1FBFDDF8389009225023DE
:10F20000A9F8003018BF6A7300230096D82140F295
:10F2100005421CF0B3FF2B7B43F060032B73FEF71A
:10F2200040B8DDF8149099F80030012B7FF6D7AD87
:10F23000062B3FF4C1ADDDF8A0C143F26A639CF830
:10F240000020C2F20003352A9CBF01321A703DF043
:10F25000D7FDFEF72BB826F04BFFFFF735B800209F
:10F26000014603221FF03AF9002386F83330FEF7F7
:10F27000FABDDDF820914223492289F800304E235F
:10F2800089F8036089F8012089F80230FEF7E2BDB1
:10F29000062B7FF475AA0B9EDDF82C90727199F8FD
:10F2A0000530FEF702BDDDF82C9099F80300012827
:10F2B0007FF435A8DDF84CC09CF80030002B01F03D
:10F2C000D2861F9E4CF2AA533288C2F20003052A4E
:10F2D00004BF02221A800ED0322A04BF14221A80E0
:10F2E00009D0B2F5FA7F04BFC8221A8003D0012AE0
:10F2F00084BF52081A80DDF88091012389F800301C
:10F30000FEF791B8DDF82CC000201CF8023002EBAB
:10F310008202120103EB830302EB830343449A7CD2
:10F3200042F002029A7426F04FFE40B15C9E46F213
:10F3300048433278C2F20003002A41F08687139EC8
:10F340003378002B00F0EE81DDF8E09099F80010A2
:10F35000002940F0E781B8F900310B2B40F3E2813E
:10F36000DDF814C046F244229CF80030C2F20002DC
:10F37000032B02F0C886092B00F0DB810A2B01F079
:10F38000A5812A78002A01F09881002B42F0BD80E7
:10F39000DDF814C08CF800309A00D11808EB011188
:10F3A00091F84E0040F0020081F84E000B9E1A4486
:10F3B000F15C120101EB810102EB81024244917C7C
:10F3C000092B41F0030191747DF466AFD14AB2F983
:10F3D0000010042902F09182CF4B0422997C013A5B
:10F3E00041F00201997403F11403F7D1FDF754BF02
:10F3F00023F0D6FBB8F80422B8F8F03131E526F056
:10F40000E3FD002800F00784DDF8389143F25F62E5
:10F4100099F80030C2F20002A3F14201182901F26A
:10F42000BE80013BDBB213705C9EDDF85C913278EC
:10F43000002009F8123026F0DFFDFDF737BFDDF8B8
:10F440002CC09CF80620022A3DF4EDAFDDF84C906C
:10F4500099F80020002A3FF47EABDDF82CC09CF820
:10F46000061001293DF4DFAF00297FF47BABDDF806
:10F4700084C19CF80020002A3FF474ABDDF8489268
:10F4800099F80020002A3FF46DABDDF800C243F28A
:10F49000FA639CF80020C2F20003002A3DF4C3AFD7
:10F4A000013A1A70FDF7BFBFDDF82C9046F22043F9
:10F4B00099F80220C2F20003002A7FF461A9997032
:10F4C000FFF75EB9059E3378072B00F01D8723F008
:10F4D000DDFF00287DF4EAAE904E0246A6F5A0734B
:10F4E000B3F91010501C503301B1C2B2B342F7D17E
:10F4F000002A01F05E80B8F800110BB2B3F10B0ED8
:10F50000DEF1000050EB0E000D2BC8BF40F00100F3
:10F51000002801F07D83B8F91000002801F07883FD
:10F52000013AD2B2022A41F24480059EDDF82C90C5
:10F530003178B8F8400219F8013001EB810212016C
:10F5400003EB830302EB830343449A7C06B242F04D
:10F5500002029A7400238B4203F053820133042B7E
:10F56000F9D1DDF814C00B9E072200238CF800208F
:10F57000F371022388F8423288F8563288F86A32EA
:10F58000FDF794BE41F01CFA0123A8F85031FDF7B5
:10F590008DBE01220020327026F0AAFD86F8009070
:10F5A000FEF79CB802203CF01DFCFFF773BBDDF8B2
:10F5B0002C9046F2204399F80720C2F20003022A59
:10F5C00004BF0322DA71FFF7F3B8022A7FF4D8A848
:10F5D000B8F90021092AC4BF0022DA703DF766AEEF
:10F5E000FFF7CEB8DDF814C09CF80030092B00F00E
:10F5F000A2870B2B00F08C87052B01F04B8320F0AA
:10F60000E7FDDDF814C09CF8003010B1012B42F288
:10F610005D81B8F900210B2A01F0D382092B3DF45A
:10F6200045AEB8F8F021062A3DF440AE95F8261014
:10F6300046F20023C2F20003002941F06085187BE6
:10F64000012140F06000187383F826106AB1188B0E
:10F65000962802F23E84DDF868C1ACF8000095F807
:10F66000272002232A838BF80030032026F008FC91
:10F670001CF0EEFFB8F92430022B7DF717AEB8F975
:10F680005031002B7DF412AEB8F9F031022B18BFC7
:10F69000042B7DF40BAE0220F4F7DCFD00287DF492
:10F6A00005AE012385F83430FDF700BEDDF82CC02F
:10F6B00046F220491CF8032003EB830302EB82028D
:10F6C0001B0103EB820343449A7C002042F00202B8
:10F6D0009A74C2F2000926F077FC002800F0058336
:10F6E0005C9EDDF85C91337846F24842062B9CBF65
:10F6F0000133DBB2C2F2000298BF1370DDF838C1EB
:10F7000019F8133001208CF8003026F075FCFDF755
:10F71000CDBD00BF28340020F0330020603200202F
:10F72000E0300020DDF814C09CF80030092B7FF495
:10F7300025AE0B9E737A032B02F026812B78012BCA
:10F7400002F04981022B02F05D82DDF814900A2359
:10F7500089F8003000F0BFBF01221A70FDF7B9BD73
:10F7600009297FF47EA8032A7FF47BA8C24AB2F954
:10F770000020072A7FF475A8B8F9E022002A7FF458
:10F7800070A8DDF82C90134689F80920FFF769B8B6
:10F79000012026F019FC00283EF43DAD0020014672
:10F7A00003221EF09BFEB8F9F031062B02BFDDF8F4
:10F7B00088C101238CF80030FEF72DBD022A7EF4AB
:10F7C00018AEB8F9A021042ADCBF032285F8252051
:10F7D000FEF714BEA2F10D01DDF850910D2A01EBE8
:10F7E000410118BF02F1FF3209EB8101C87A13BF52
:10F7F000D2B215221A701A700CBF0823A2F10D03A1
:10F80000DDF850C140F0020003EB4303C8720CEB7B
:10F810008303DA7A42F00102DA72FDF73DBDDDF8CA
:10F8200048C14BF67D519CF80000C2F20001C307AD
:10F8300000F15183B8F8F03140F00100023B9BB277
:10F84000022B087000F21F83B8F90432092B00F371
:10F850001A83DDF8289099F80030002B40F01383CC
:10F86000DDF814C0DDF82C90072303211A468CF82C
:10F87000003089F8071002EB820201EB81011201CE
:10F8800002EB81024244907C072140F00200907418
:10F89000DDF838C050226973ACF80020FFF79ABB3E
:10F8A000012B04BF0223AB70FDF700BF012026F03F
:10F8B0008BFB00283DF4F3AE0020014603221EF02E
:10F8C0000DFEB8F9F031062B02BFDDF888C1012327
:10F8D0008CF80030FDF7E3BEB8F9F021062A00F0FD
:10F8E000398726F063FB002841F0658322F0C6FCCF
:10F8F000B8F800310A3B9BB2012B04D9B8F9F031BA
:10F90000042B7DF4D3AC20F087FBFDF7CFBC4B9EDE
:10F9100045F63C533288C2F20003002A3DF4C6ACDF
:10F92000013A1A80FDF7C2BCDDF82CC09CF8063005
:10F93000012B3DF478AD002B7FF4CDAADDF8849146
:10F9400099F80030002B3EF4C2AEDDF848C29CF8B6
:10F950000030002B3EF4BBAE809E43F2FA63327857
:10F96000C2F20003002A7DF45EADDDF8149001229E
:10F970001A7099F80030FDF753BD0B9EF0780128FE
:10F980007EF49BAEDDF84C9099F80030002B01F02E
:10F990008085DDF87CC04CF2AA53BCF80020C2F28E
:10F9A0000003022A04BF05221A8010D0142A04BFC3
:10F9B00032221A800BD0C82A04BF4FF4FA721A8080
:10F9C00005D040F2F1318A429CBF52001A80609EFD
:10F9D00001233370FDF727BD012B96F8303004BFAB
:10F9E00043F0020386F83030FEF765BF26F0ECFAEC
:10F9F000002800F0DE824E9E43F25F623378C2F24E
:10FA00000002A3F14101182901F2F8800133DBB2B1
:10FA10001370DDF870C1579E9CF80020002006F896
:10FA2000123026F0E9FAFDF741BCDDF82C9099F888
:10FA30000620022A7EF441AEFDF7F5BCDDF83091D8
:10FA400099F8003023B1B8F95432082B01F0CD8574
:10FA5000DDF8F0C0BCF80030002B00F01C84012B56
:10FA600002BFB4F84C30DDF83090A9F80030002027
:10FA70003CF0B8F9FDF7F0B828340020DDF82C9000
:10FA800099F80630012B7EF4D8AD3CF07DF80028C3
:10FA900001F03585DDF864C19CF80030002B01F0E1
:10FAA0002E85DDF86C9199F80030002B01F0278548
:10FAB000DDF8BCC046F231439CF80020C2F20003DE
:10FAC000D2F1010238BF00221A70FDF702BCA3F187
:10FAD0000D02DDF85091152B02EB420218BF0133E5
:10FAE00009EB8202D17A0BBF0D23DBB23370337086
:10FAF0000CBF00230D3BDDF850C141F0020103EBC8
:10FB00004303D1720CEB8303DA7A42F00102DA721A
:10FB1000FDF7CCBB26F04AFA00283EF46CAD01207C
:10FB200026F052FA00283EF466AD484649460322C4
:10FB30001EF0D4FCFEF75FBDDDF82C9099F806307E
:10FB4000012B7EF4FCABDDF864C19CF80030002B87
:10FB50003EF4F5ABDDF86C9199F80030002B7FF4A2
:10FB600019A8FEF7ECBB1979002940F0C6840122E0
:10FB70001A71FEF781BEDDF8149099F80030FDF798
:10FB80002ABCDDF82CC09CF80030022B7EF459AB67
:10FB9000B8F91030002B41F06F86042026F070F980
:10FBA000DDF82490012299F850103378A8F810104D
:10FBB000AA70FEF74CBBB8F91030002B40F09B85C3
:10FBC000B8F96030002B00F08783012302223370E4
:10FBD000AA70FEF73CBBDDF814C046F244239CF843
:10FBE0000020C2F20003102A84BF10221A700ED81F
:10FBF000099E3178042901F053820D2A04BF0E2298
:10FC00001A7004D00B3A012A9CBF0A221A700223F0
:10FC10002B70FEF7F0BCDDF8BCC09CF80030002B68
:10FC200000F07E83DDF8149099F80030062B01F087
:10FC3000F685B8F9F021062A00F08D83012B40F2F9
:10FC40009483052B00F0A5830B2B01F02F820C2B46
:10FC500040F02F82DDF8F49199F80030002B00F08D
:10FC60003682DDF83CC246F224139CF80020C2F232
:10FC70000003082A9CBF01321A70FDF717BB03234B
:10FC8000537223F04FFAFEF7D9BE117040F098FE80
:10FC9000DDF81490979899F80030092B1FBFDDF814
:10FCA00038C0052250236A7318BFACF80030FEF745
:10FCB000AABF969E40F205425A2100230096772063
:10FCC0001CF05CFA4FF4617004F072F80023DDF868
:10FCD000189019460220A9F80030F4F7B7FA14205A
:10FCE0000121F4F7B3FAFDF7E1BADDF84CC09CF856
:10FCF0000030002B00F08D80DDF8E0C09CF8003073
:10FD0000002B40F08680B8F900210B2A40F3818057
:10FD10003278032A03F0A684092A00F0818029782A
:10FD2000002940F084830A2A01F0F9850C2A01F0A9
:10FD3000EF85531CDBB2092B09BF931CDDF814C0FF
:10FD4000059EDBB214BF8CF800303370032B00F239
:10FD50008F8303EB830208EB021292F84E0040F00F
:10FD6000020082F84E0011B90A2B02F0D981042B4F
:10FD700040F08F830B9EDDF814907379052103EB1F
:10FD8000830308EB830393F8A22189F8001042F063
:10FD9000030283F8A221FDF789BA0022DDF82C9036
:10FDA0005A7199F80530FDF780BFB8F9A031042BDE
:10FDB00001F00783022A7EF42DADDDF82CC0032369
:10FDC0001A468CF80530FEF726BDDDF82C9000228F
:10FDD000C64413469EF80A6009F80120FEF729BDC3
:10FDE00006297EF4CDACB8F9F031062B00F08D84F5
:10FDF000DDF82C9046F2204299F80600C2F200028B
:10FE000002287EF4BDAC042B1CBF03239371FEF7C4
:10FE1000B7BCDDF8149099F80020092A7FF47FAF71
:10FE2000DDF82CC09CF80930032B02F0D6840B9E21
:10FE30000923727A02EB820108EB810191F8E20258
:10FE4000032A40F0030081F8E20200F038839900B1
:10FE5000CA1808EB0212B2F93800042805D1B2F929
:10FE600024000928C4BF092090840B4408EB031325
:10FE70000422997C013A41F00201997403F11403C0
:10FE8000F7D1FDF713BADDF81490DDF82CC099F81E
:10FE900000301A461CF80310EDE4DDF82CC09CF885
:10FEA000061001297FF45CA8FEF766BEDDF82C90F1
:10FEB00099F80630012B7EF41AACDDF864C19CF889
:10FEC0000030002B3EF413AC5B9E3378002B7EF4A5
:10FED00086AFFEF70CBCDDF8149020F0010099F815
:10FEE00000300870072B01F05F82DDF82C9003EBE7
:10FEF000830119F80320090102EB820201EB82025F
:10FF00004244907C0821C0E47E9E3270039304F04A
:10FF100035FE039B337099F80030FDF759BA959E72
:10FF20004CF63E613078C2F20001DDF814900028F2
:10FF300040F0008799F800000122092818BFDDF879
:10FF400038C0989E0A701EBF50215A73ACF800103A
:10FF500089200096D82140F2054200231CF00EF9BA
:10FF6000FDF7A4B921F00401C2F20003117003F1FE
:10FF70006001DA7D0C3342F00202DA728B42F8D172
:10FF8000DDF81490709E99F800309120092B1FBF66
:10FF9000DDF838C00A225023ACF8003018BF6A736D
:10FFA0000096D82140F2054200231CF0E7F8FDF747
:10FFB00078B9DDF8149046F2442699F80030C2F280
:10FFC0000006062B01F00083B8F9F021062A01F0A3
:10FFD0000382012B41F20882052B01F01882DDF823
:10FFE00014C29CF8002012B10A2B00F0E1860B2B02
:10FFF00001F036820C2B40F0E086DDF8F4C19CF86D
:020000040801F1
:100000000030002B00F0D9868F9E46F22413327800
:10001000C2F20003002A3DF449A9013A1A70FDF723
:1000200045B93BF037FDFEF70ABFB8F90422022AB2
:100030007EF785AC042B7EF48AACFEF783BCDDF83A
:100040001490DDF82CC099F80030092B01F01885C8
:10005000052B01F0D4841CF8032003EB830102EB91
:100060008202090101EB82014144887C2A7840F038
:1000700002008874002A40F0D0870B3B0A2B02D87C
:10008000059E00233370DDF8249043F2900399F825
:100090000C20C2F20003002A42F050800121DDF85A
:1000A00038C00322197350236A73ACF80030FDF78F
:1000B000FDB8DDF8149299F8002042B10A2B06D160
:1000C000DDF82CC09CF80A30012B40F2EA8020F0C9
:1000D0007FF858B1DDF8149099F8000030B9DDF8D8
:1000E0002CC09CF80020012A02F0578120F036F83D
:1000F000002800F09A85DDF8149099F80020002A75
:1001000041F00384DDF82CC09CF80030012B02F094
:10011000D081914600264FF0020CB14506F1010650
:1001200000F02086042EF8D14B46072B02F0768093
:10013000A9F10B02D2B2012A42F26380B9F1060F93
:1001400002F02780B9F1050F43F0A981DDF82C906A
:1001500099F80520022A01F03D87B8F8F021042A19
:1001600002F08282DDF82CC003EB83021CF803103E
:10017000120101EB810002EB80024244108A0FFA67
:1001800080FEBEF1000F41F37D87013880B21FFA77
:1001900080FE062BA2F810E003F0A180012B42F2B2
:1001A000F187072B41F08987DDF82C9099F807201B
:1001B0006AB9B8F94022042A03F0B582032A03F091
:1001C0007E8298F8062242F0020288F80622DDF8C4
:1001D00034C09CF80020012A41F22787052B01F04A
:1001E0000C87062B01F02B87052B01F01087092BBC
:1001F00018D1B8F9E032002B42F01F82B8F808336A
:100200005A1F012A42F20D82042B02F01B82DDF8F4
:100210002CC09CF80930022B02F02282DDF81490E9
:1002200099F8003003EB830208EB02120421907C62
:10023000013940F00200907402F11402F7D1DDF8A8
:100240002C9019F8032003EB83031B0102EB8202BD
:1002500003EB82014144B1F810900FFA89F3022BAD
:100260007DF70BA8002022F0F3FFC0EB0900088205
:10027000FDF703B803203BF01BF903203BF044F9E2
:10028000FEF7D6BD06200121F3F7E0FF02203AF089
:10029000F1FAFEF7C6BDB4F89C300C9EB380FFF7B0
:1002A000E6BBB8F82430033B9BB2012B3FF60FAFFF
:1002B000B8F8302313B2002B7CF7F8AFB8F844330A
:1002C00019B200297CF7F2AF013A013BA8F83023BC
:1002D000A8F84433FCF7EABFB8F90031092B00F362
:1002E0007786AB78012B42F26081022B7DF4AEAFB2
:1002F0000123DDF81490184689F8003022F0E6F961
:1003000099F80030FDF7A3BFDDF82C9099F807307D
:10031000022B04BFDDF83CC08CF80020FFF7D7B8F3
:10032000DDF814C046F244299CF80030C2F20009FE
:10033000062B7FF47EACDDF82CC09CF80630012B38
:1003400001F01387B8F9F021DDF81490062A99F826
:1003500000307FF473AC002B41F09C82DDF82CC0A0
:100360009CF80020032A01F0F687DDF82CC01CF869
:100370000320032A01F0A382012A7FF462AC00204B
:1003800025F07EFDDDF8149099F80030052B7FF400
:100390005BACDDF82CC09CF80530012B7FF497AEE8
:1003A000B8F9A031082B7FF492AE789E3378002BF9
:1003B00043F0E380DDF8FC91DDF898C199F8003056
:1003C000002B03F0CC80BCF8003043F26062B3F540
:1003D000487FC2F200023CBF14331380FCF466AFC6
:1003E000B3F52F6F3CBF32331380FCF45FAF43F2A1
:1003F000A9218B429CBF643313807CF657AF43F630
:1004000079218B429CBF323313807CF64FAF43F689
:10041000EA52934295BF669EDDF89891143343F6F5
:10042000FF5394BF3380A9F80030FCF73FBF0C2A7C
:1004300001F06E8202297FF47CAC099E3378042B94
:100440003FF477AC092A01F26A82531CDBB2DDF873
:100450001490092B89F8003046F2442004BF931C05
:10046000DBB2C2F2000008BF0370032B7FF671AC51
:1004700000297FF47CAC082B7FF476ACDDF82C905F
:1004800046F2204299F80800C2F20002022808BF92
:100490001172DDF82CC003EB83011CF80320090165
:1004A00002EB820001EB80014144887C092B40F083
:1004B000030088747CF4FAAE032A7FF4C8ACB8F960
:1004C000E022002A7FF4C3AC5C9EDDF85C913278B8
:1004D000DDF838C119F812208CF80020B7E4DDF8F7
:1004E0009C90DDF864C06E220123A9F800208CF8EE
:1004F00000301FF08BFEFDF729BB1A71FEF7BCB967
:100500000132D2B2042A1A717EF4B6A9FEF74DBCAC
:10051000DDF8C891DDF8D4C199F8002046F23943DE
:100520008CF80000C2F20003002A40F0AF870122DD
:100530001A70FCF7BBBEB8F90833022B7FF45FA832
:10054000B8F8E032012B7FF45AA8B8F95021002AFC
:100550007FF755A80B9E727A032A03F02E81B8F814
:10056000F42211B20129C1BF93B2981E03F1FF33E7
:100570009BB2A8F8F432C8BFC0B239F02FFD98F88A
:10058000F63243F0020388F8F63225F0F9FC002831
:100590003CF48CAE6A9E00233370FCF787BEA3F157
:1005A0003001082900F261860133DBB21370FEF7D7
:1005B0003BBF98F80632B8F8F02143F00203062A50
:1005C00088F80632B8F8103004D0B8F94002012893
:1005D00001F08183B8F84012B44A08B200265032C4
:1005E0000BB1B0420AD10136042E3CF45FAE32F8B2
:1005F000503C5032002BF6D0B042F4D0042803F027
:100600004C81EB882A89AB806B89EA802B816981D8
:10061000032EA8F8406203F027810223012088F806
:10062000423288F8563288F86A323BF0DBFBFCF73E
:100630003DBE0220F3F70EFE00287DF45BADFDF712
:100640005DBDB8F90422DDF85491B8F9F03109EB39
:100650004202B2F85420DDF838C0042BACF8002078
:100660007EF475A9FEF76EB9B8F9A031042B3CF7FA
:10067000E6AAB8F84C20B8F89C300C9E0A320A332F
:100680003280B380FCF7E5BAB8F900310B2B7EF766
:1006900081AC139E3378002B7EF47CACDDF858914E
:1006A0004CF2A05399F80020C2F20003D2F10102EB
:1006B00038BF00221A70FCF7F9BD002B40F0068706
:1006C000DDF8149089F80030FEF766BEDDF814C03E
:1006D00008238CF800300B9EF25C03EB830302EBE3
:1006E00082021B0103EB820343449A7C42F0030223
:1006F0009A74FCF7D1BDB8F96030002B7FF4ECADF3
:1007000001223370AA70FDF7A2BD0B9E46F2204372
:10071000B279C2F20003012A04BF02229A71FEF7E5
:100720002FB8012A7CF4B1AFDDF81490DDF82CC0AD
:100730000A22002389F800208CF80A30FCF7B6BDA5
:10074000484621F0C3FF3378FDF781BD25F0D0FC8A
:10075000FDF7EEBB01221A7021F07EFEFCF7A6BD6C
:10076000002A7CF492AF0B9E46F22043F278C2F24C
:100770000003012A7CF489AFDDF814900321DA70BC
:1007800089F80010FCF792BD01EB810008EB001026
:1007900090F82660535446F0020380F82630FEF7A6
:1007A0006BB846F22E4145F63C52C2F20001C2F24D
:1007B0000002059E219193924FF000099D94092B10
:1007C0005ED003EB830108EB01110A8F012A18BFE9
:1007D000002100F0D181022A6AD0002A40F0A180D5
:1007E000DDF84CC09CF80010002940F0878103EB35
:1007F000830308EB031393F8240036F079FD327875
:100800000446092A014600F00E8102EB820208EB41
:100810000212908C013090848AF80090002C40F0F5
:100820004981204637F024F99AF8003046F2231423
:10083000C2F20004002BF7D0002039F0A5FD96206D
:1008400003F0B6FA22F016FA1BF002FF2278052A0E
:1008500000F05A812378042B41F068803378092B0B
:1008600000F0548103EB830208EB0212918C08B272
:100870000128C6BF02399184A2F82490092BA0D187
:10088000DDF82CC09CF80920032A9AD1B8F91C1372
:100890005E9C01EB410001EB800146980022084478
:1008A000815CA1540132082AFAD18AE78031002004
:1008B000139C2278002A40F07C8103EB830308EB31
:1008C000031393F8240039F089FB33780B9C01461D
:1008D000E25C032A00F05C8103EB830308EB031363
:1008E0009A8C01329A84749CB8F90432226803EB22
:1008F000830302EB8302D389DDF8E8C1ACF8003052
:10090000039125F03DFB0399337810B16A9C84F87C
:10091000009003EB830208EB0212128F002A3FF4CF
:100920005FAF12B2042A9D9C40F0D480B8F81C93AB
:1009300022F02CFBDDF860C109229CF80030DDF8C4
:1009400014C0014606468CF80020C3B15FFA89F94D
:10095000A8F81C930023DDF87891DDF8B0C119F8F0
:1009600003200CF803200133082BF4D1DDF82C9080
:10097000032389F80930039122F0D4FB039998F8F6
:10098000E20298F8F62298F80A3340F0020042F0AA
:10099000020243F0020388F8E20288F8F62288F89F
:1009A0000A33002E3CF482ACDDF814C09CF8003011
:1009B00003EB830208EB0212B2F93820052A40F05B
:1009C0008C8003EB830308EB031393F8240036F0C9
:1009D000DBFE03903BF07EFE059E0399337803EB2C
:1009E000830208EB0212B2F93820062A77D103EB12
:1009F000830308EB031393F8240037F01DF9B8F9CB
:100A0000A0310146082B01F09F86DDF8149099F87B
:100A1000003003EB830208EB0212B2F93820032AFC
:100A20005FD1C82167E0DDF82CC09CF809000328DD
:100A30007FF4EBAE54B95798DDF878E122461EF802
:100A4000023000F812300132082AF8D1B8F81C231D
:100A500010B20D28DCBF0132A8F81C2306DDDDF83A
:100A60002CC1BCF800200132ACF8002043F2600039
:100A7000C2F20000039137F04DF8B8F81C03DDF81E
:100A800018C102B202EB420E02EB8E0E1CF80E30C1
:100A90000399E6441BB1C44B9E457FF4BDAE002ACA
:100AA0007FF7BAAE0138A8F81C038AF80090002C32
:100AB0003FF4B7AE2B789D9C002B41F0AD84059E92
:100AC000337803EB830208EB0212128F12B2042A6E
:100AD0003FF42CAF052A3FF474AF062A87D0032ACF
:100AE0009FD0072A3EF4A8AADDF82C9019F803300D
:100AF000032B01F03F84CEB2FEF79FBA21990A7012
:100B00003CF0E4FA337872E6337858E60B9C627A6C
:100B1000032A7FF4A7AEB8F81C2311B2002941F3D1
:100B20008A8091B24A1E92B202EB4200DDF818C1EF
:100B300002EB800092B26044A8F81C2300235E9C64
:100B400010F803E014F803C0DCB2F44503F101032C
:100B500041F06480082BF2D1002A01F0EE86DDF826
:100B60002CC08B1E9CF80920A8F81C33032A4FF0D8
:100B700009037FF426AE89E691F8240036F04AFB9B
:100B80003378014603EB830208EB0212128F22E650
:100B9000B8F81C331AB20D2ACBBFDDF82CC10133D3
:100BA000BCF80030A8F81C33C4BF0133ACF80030E7
:100BB00099E6DDF884C08CF800903CF087FA337831
:100BC0007BE6032B7EF42AAD949E44F211633278C7
:100BD000C2F20003012A9ABF0132D2B200221A7077
:100BE000A8F81421FCF762BB022A01F05480DDF85A
:100BF00024C000238CF80030FDF7D8BCA3F13101EC
:100C0000082900F21D85013BDBB21370FEF701BF1E
:100C10000C390A2B18BF01293EF684ACB8F96030B4
:100C2000002B3EF47FACFEF77BBCDDF814C09CF8D3
:100C30000090B9F1050F00F0CA85B9F10C0F7FF6ED
:100C400069AAA9F10D02DDF850E14FEA420C0CEB64
:100C500002030EEB830393F80BE059794EF0020E7A
:100C600083F80BE0002900F09785187901390238E4
:100C7000C9B20128597141F25D8101290B4601F089
:100C800065810B2B00F08A85DDF8149099F800300F
:100C9000FFF7D5BA0B9E7379012B7EF4B0ACB8F98F
:100CA000A021082A02F0EE84DDF8B89199F800003E
:100CB00001287EF4A4AC042A3EF7A1ACDDF830C1D3
:100CC00046F241419CF80030C2F20001002B42F094
:100CD000B083659EDDF8DC913378042A087089F8CA
:100CE000003001D13BF0F6FC24F0B4FF2F4AA2F112
:100CF000500393F8A211143341F0020183F88E11CE
:100D00009342F6D1B8F94032042B0CBF00200120E9
:100D10003BF068F8DDF8309199F80030022B7CF454
:100D2000C5AAB8F9A031042B7CF4C0AA3BF0D2FCD0
:100D3000FCF7BCBA99F80000999E092818BFDDF8A5
:100D400038C00A701FBF022150225973ACF800202E
:100D500089200096D82140F2054200231BF00EFAAC
:100D6000FCF7A4BADDF82CE009EB89021EF8093083
:100D700008EB0212002B7FF4D5A9B2F9100001286C
:100D80007FF4D0A9B8F94022914502F0FE8448468C
:100D9000CDF80CC021F052FD0598DDF80CC090F89C
:100DA0000090FFF7BFB900BF088001087031002034
:100DB0000B9EB37A012B41F2F1841FF009FA58B16E
:100DC000DDF8149099F8001031B9DDF82CC09CF8CA
:100DD0000030012B01F085831FF0C0F9002800F0DE
:100DE000AD83DDF814C09CF80020002A41F0168481
:100DF0000B9E3378012B02F01E8094464FF00009C1
:100E00003B4621944F46022664469946BC4200F078
:100E100081830137042FF9D1A446BCF1070F4F4657
:100E2000219CE14601F00983ACF10B03DBB2012BFD
:100E300041F27883BCF1060F01F07786BCF10A0F0E
:100E400001F0B286BCF1050F04D10B9E7379022B21
:100E500000F068870B9E0CEB8C0316F80C101B013E
:100E600001EB810603EB86064644328AB6F9083068
:100E70002192023B12B29A4209DA0020CDF80CC04E
:100E800022F0E6F9219BDDF80CC018443082BCF159
:100E9000000F40F0F88739B9B8F81030002B01F096
:100EA0003E84042B01F02B84B8F8F031042B01F0C0
:100EB000B486DDF82CC009EB89031CF809201B015E
:100EC00002EB820103EB81034344198AB3F908E082
:100ED0000EB2B64503F1080040F34687013189B2EE
:100EE00088B2B9F1060F188201F05B87B9F1010FE2
:100EF00041F22E87B9F1050F01F0E486B9F1070F31
:100F000000F05B87B9F1060F01F0A3860D9E3378E0
:100F1000012B23D9B9F1060F20D10B9EB379BBBBAE
:100F2000B8F8F031002B41F0F18595F82F2046F20A
:100F30000023C2F20003002A01F0DF851A8B83F838
:100F4000272098F85221DDF814C0002342F0020255
:100F50009CF8009088F85221A8F85031B9F1050F9B
:100F600000F0F486B9F1090F16D1B8F9E032002B80
:100F700041F0F282B8F808335A1F012A41F2E082A8
:100F8000042B01F0EE820B9E737A022B01F0F582A6
:100F9000DDF814C09CF8009009EB890908EB0913EF
:100FA0000422997C013A41F00201997403F114037F
:100FB000F7D1FCF76CB9012025F006F800283EF4C3
:100FC00095AC3046314603221DF088FAFEF78EBC00
:100FD0000D2BD5BFDDF814C0059E01230023D4BF1F
:100FE0008CF800303370FDF732B9DDF82C9099F8A9
:100FF0000920032A01F0F781DDF8609189F800608B
:10100000002022F027F8DDF8BCC1002306468CF84A
:10101000003036F02DFDFCF722B90C2B40F206858E
:10102000012A00F07787022A00F0648795F83530AE
:10103000DDF81490092B89F800307CF437A998F872
:10104000E21298F8F62298F80A3341F0020142F0D1
:10105000020243F0020388F8E21288F8F62288F8C8
:101060000A33FCF723B9DDF858C19CF80030002B97
:101070003CF4D9A9B8F830331AB2002A7CF7D3A9C6
:10108000013B99B28BB21AB2022AA8F830337CF72E
:10109000CAA922F0DDF8081AA8F83003FCF7C3B992
:1010A0000E2A04BF0F221A70FEF7B1BDDDF8C891F9
:1010B00099F80030002B00F06181DDF81CC244F289
:1010C00009639CF80020C2F20003012A9CBF013290
:1010D0001A70FCF7EBB8B8F96030002B40F0808450
:1010E0000420039124F0CCFEDDF82490039999F8B4
:1010F0005120A9703378A8F86020FDF7A8B88B9E1E
:1011000043F210723378C2F20002002B00F02D87F8
:10111000769E47F200123178C2F20002012900F0F7
:101120005187012B00F03687B8F95031DDF82CC219
:10113000002BC8BFDDF874914FF00006C4BF012337
:1011400089F800308CF8006046F6B423DDF8D891B9
:10115000DDF86CC1C2F2000398F8EC0098F83C117D
:1011600003F2346289F800608CF8006085F826602C
:101170009870D97004339342FAD12B7B46F2002643
:1011800043F060032B73C2F2000624F0F9FE58B15D
:101190000023DDF8F49002221846A8F8183289F8E6
:1011A00000203AF047FD30833BF038F9B8F940327F
:1011B000042B0CBF002001203AF014FEB8F9F031E6
:1011C0007BB1DDF868C12B8BBCF8000046F200262D
:1011D000C2F20006962885F8273098BF308302F2C5
:1011E000DA81059E3378072B0BD1DDF82C9046F27F
:1011F000204299F80710C2F20002032904BF00211F
:10120000D171DDF82CC01CF8032003EB830302EB43
:1012100082021B0103EB820343449A7C42F00202E8
:101220009A74FEF722BA0D2A00F096870F2A7DF4F1
:101230003AACDDF850C10D229CF823101A7041F031
:1012400003018CF82310FCF727B8DDF85C91013A14
:10125000D2B219F81210DDF838C103201A708CF8D8
:10126000001024F0C9FEFCF721B8A3F120023F2AA8
:101270003EF6DAA80FF2040C5CF822F01B2E0108EF
:1012800029F4000829F4000829F4000829F40008CA
:1012900029F400080D2E010829F40008FF2D01088B
:1012A000F52D010829F4000829F4000829F40008A4
:1012B000E72D010829F4000829F4000829F40008A2
:1012C00029F4000829F4000829F4000829F400088A
:1012D00029F4000829F4000829F4000829F400087A
:1012E000DD2D010829F4000829F4000829F400087C
:1012F00029F4000829F40008CF2D010829F400087A
:10130000C52D010829F4000829F4000829F4000873
:1013100029F4000829F4000829F4000829F4000839
:1013200029F4000829F4000829F4000829F4000829
:1013300029F4000829F4000829F4000829F4000819
:1013400029F4000829F4000829F4000829F4000809
:1013500029F4000829F4000829F4000829F40008F9
:1013600029F4000829F4000829F4000829F40008E9
:1013700029F4000829F400085F340108DDF8D4914D
:1013800099F80030002B3EF4A2AEDDF828C246F2F8
:1013900038439CF80020C2F20003002A3BF486AFD9
:1013A000013A1A70FBF782BFDDF82CC046F22041EB
:1013B0009CF80700C2F20001032808BFCA71FEF7BB
:1013C00094BD032A7DF426AADDF82C9000231A464A
:1013D00089F80530FDF71FBA002B40F0BB810B9E4A
:1013E0003278032A02F0BF81DDF82C9019F803004F
:1013F000032800F0CA8101287EF4EEAD24F040FD00
:10140000DDF814C09CF80030052B7EF4E8AD0B9E8F
:101410007279012A7FF4D1ACB8F9A031082B7FF49E
:10142000CCACDDF8E09199F80030002B41F0B882A7
:10143000DDF8FCC19CF80030002B01F0A282669E12
:1014400043F260623388C2F20002B3F5487F81F054
:101450008082232B8CBF143B10231380FBF726BF05
:10146000DDF8C89199F80030002B00F0C581DDF857
:101470001CC244F209639CF80020C2F20003002A57
:101480003BF414AF013A1A70FBF710BF1870FBF76A
:101490000DBFDDF8589199F80030002B3DF417A9E5
:1014A000B8F830331AB2FE2A3DF711A9013399B2C8
:1014B0008BB21AB2FC2AA8F830333DF708A921F004
:1014C000C7FE0844A8F83003FDF701B9013BDBB2C1
:1014D000DDF814C0082B8CF8003000F030820A2BA5
:1014E00000F03A82032B7DF657AF042B40F0318297
:1014F000DDF814C003238CF80030FFF7ECB8DDF8FA
:10150000149099F80000FDF795B8013B059EDBB2F9
:101510003370E7E7DDF82CC01CF80420002A7FF4C4
:1015200078ACB8F94022944201F0A184204621F021
:1015300085F9DDF814C09CF800406AE4059E96F831
:1015400000C0BCF1050F00F0B78695F825301BB13F
:10155000BCF1070F00F0E686BCF10C0F7FF64EAC35
:10156000ACF10D02549E4FEA420E0EEB020306EB65
:101570008303DE7A597946F002060A29DE7200F208
:10158000DF860131C9B20229597100F08286DDF887
:1015900050910EEB020309EB83031B79023B012BF5
:1015A0003BF675AE549E0EEB020306EB83035A79AD
:1015B000022A04BF04225A713BF469AE052A04BF13
:1015C00008225A71FBF763BEDDF82CC09CF8069028
:1015D000B9F1010F7EF403AD24F0D2FC002841F0F4
:1015E0003182059E3378FEF7EFBCB8F9A031042BA9
:1015F0003EF72EAADDF8F0C0BCF80030002B00F05A
:10160000CD87012B7EF433AAB4F84C30DDF830904E
:101610000A33A9F80030FEF72ABA0D2B00F06184D6
:10162000102B03BFDDF850910D2399F80B200133E7
:1016300004BF42F0030289F80B203370FBF736BE7B
:10164000A3F120023F2A3EF6E4A90FF2080959F857
:1016500022F000BF1339010813FA000813FA00083A
:1016600013FA000813FA000805390108F7380108D1
:1016700013FA0008ED3801082F39010813FA0008A1
:1016800013FA000813FA00082139010813FA0008B8
:1016900013FA00083D39010813FA000813FA00088C
:1016A00013FA000813FA000813FA000813FA0008E6
:1016B00013FA000813FA000813FA000813FA0008D6
:1016C00013FA000813FA000813FA000813FA0008C6
:1016D000B536010813FA000813FA000813FA0008D7
:1016E00013FA000813FA000813FA000813FA0008A6
:1016F00013FA000813FA000813FA000813FA000896
:1017000013FA000813FA000813FA000813FA000885
:1017100013FA000813FA000813FA000813FA000875
:1017200013FA000813FA000813FA000813FA000865
:1017300013FA000813FA000813FA000813FA000855
:1017400013FA000813FA000813FA000813FA000845
:1017500081370108012B7EF43CACDDF82CC09CF8ED
:10176000010003287FF447AE369E44F2F9523178E7
:10177000C2F20002A92908D802311170DDF82C90BC
:1017800019F8030003287FF436AE2A7B591C42EA7D
:1017900041122A73FEF720BC0B21597195F82C10C9
:1017A00046F200234945C2F20003624401F0B382CD
:1017B000DDF824C0DDF850919CF80010DDF814C06D
:1017C00009EB82029CF800301171FEF738BD0B9EC8
:1017D0007379002B40F0F286B8F9A031002B7EF42B
:1017E00099ACA64B4FF4006103F5B46223F8021FD5
:1017F0009342FBD1FEF78EBC759E3378002B3FF4ED
:10180000DCAADDF8289246F2384399F80020C2F2AB
:101810000003022A9CBF01321A70FBF747BDDDF8B6
:101820002CC09CF80630012B7EF48CAD3AF0ACF95C
:1018300000283EF475ADDDF8649199F80030002B76
:101840003EF46EADDDF86CC19CF80030002B3EF428
:1018500067AD869E46F232433278C2F2000351B23F
:101860000429DCBF01321A703AF0D8FDDDF814907B
:1018700099F80030FBF7D4BD052024F001FBB8F83F
:101880001020DDF824C033788CF85020A8F8109090
:10189000FCF7DDBC012B7EF4D1A9DDF82CC09CF84F
:1018A0000120032A7EF468ADDDF8D89044F2F952A5
:1018B00099F80010C2F200021E2900F257852A7B17
:1018C000591C42EA41122A73FEF7BBB90B9EF05C29
:1018D00001287DF4A3AEDDF8CC9144F2146299F8AE
:1018E0000010C2F2000200293DF498AE02299ABF0E
:1018F000013111701070FBF7D9BC32F9141C0929A1
:10190000C8BF22F8143CFDF767BD9146FFF791B9B7
:10191000DDF814C009238CF80030FEF724BADDF896
:101920001490092389F80030FEF781BA2B789D9C2A
:10193000002B3BF4BBAC1EF06FFBFBF7B7BC0B9E60
:1019400046F22043317AC2F20003022908BF1A721C
:1019500008239A00FDF72ABDDDF82C9046F22040BE
:1019600099F80A10C2F20000022908BF8272F0D072
:1019700001EB810108EB810393F8322342F003026B
:1019800083F83223FBF788BCB8F9F031062B00F05E
:101990002281B8F91C33002BC4BF0023A8F81C33E4
:1019A0003BF784ACDDF82C9145F63C53B9F8006068
:1019B000C2F20003002E40F0518124F0F7FA002813
:1019C0003DF4BCAE3046314603221CF087FD2B7837
:1019D000012B7DF4B7AE059E0C233370FEF77BBE62
:1019E000052024F04DFAB8F86010DDF824C000227C
:1019F00033788CF85110A8F86020FCF728BC9CF8CC
:101A00000520012A00F0CC80DDF82CC003EB830117
:101A10001CF80320090102EB820201EB820242441E
:101A2000907C297840F002009074E1B124F0BEFA75
:101A3000002840F01B81B8F9F031062B00F0168128
:101A4000099EDDF814C032789CF80010042A46F292
:101A50004423C2F200030CBF0D220E2285F835107C
:101A60001A70FBF723BCA3F10B020A2A7EF608AB1F
:101A7000092B3BF41BACFEF706BB00BFCE64002075
:101A80009CF80920032ABFD1B8F9E022012ABBD172
:101A9000B8F91C23469E02EB420102EB8102034689
:101AA0003244D15C0DF51E7909F8031001330D2B7A
:101AB000F7D14B463F2113F8012B272A0CD0402A9F
:101AC0000AD07C2A94BF00200120213A032A8CBF2F
