:020000040800F2
:10C0000000F000204DC00208393601083B36010817
:10C010003D3601083F3601084136010800000000A6
:10C02000000000000000000000000000453601088C
:10C030004336010800000000473601084936010870
:10C040004B3601084D3601084F36010851360108BC
:10C05000533601085536010857360108593601088C
:10C060005B3601085D3601085F360108613601085C
:10C07000633601086536010867360108693601082C
:10C080006B3601086D3601086F36010871360108FC
:10C0900075360108793601087B3601087D360108BE
:10C0A0007F3601088136010883360108853601088C
:10C0B00087360108053B0108FD3C0108B93E01082F
:10C0C000BB3E0108BD3E0108BF3E0108C13E01085C
:10C0D000C33E0108C53E0108C73E0108C93E01082C
:10C0E000CB3E0108CD3E0108CF3E0108D13E0108FC
:10C0F000D33E0108D53E0108D73E0108D93E0108CC
:10C10000DB3E0108DD3E0108DF3E0108E13E01089B
:10C11000E33E0108E53E0108E73E0108E93E01086B
:10C12000EB3E0108ED3E0108EF3E0108F13E01083B
:10C130002DE9F04F814B93B00CAC03F11805186852
:10C140005968224603C20833AB421446F7D14FF078
:10C1500000607B4905F090FAF8F788F80B20F8F7B3
:10C1600079F8034640B9774A982000921E2140F2A0
:10C17000FF72F8F769F8FEE7734B20200093322135
:10C180004FF6FF720023F8F75FF8704B64200093BE
:10C19000822140F21F520023F8F756F86C4B1E2103
:10C1A00040F21F52009368200023F8F74DF8072053
:10C1B000F8F750F8674B18600820F8F74BF8664B13
:10C1C00018600920F8F746F8644B18600A20F8F761
:10C1D00041F8634B18600D20F8F73CF861490422E0
:10C1E00043F0EAFA604B08B9012200E000225F4CFC
:10C1F0001A703EF099FE22F099FC25F0B7FF022359
:10C20000002023703CF0DEFD034630B9584A7D2003
:10C2100000920A214FF4784205E0564B50200093DB
:10C220001E211F220023F8F70FF82378042B02D9D0
:10C230004E4B02221A70504BDFF870814FF4FA72A5
:10C2400000274FF4FA601A804C4D88F8007005F012
:10C2500037FB01203DF052FD25F08AF94FF4E060F4
:10C2600005F060F9012405F112001E23AB74EF7490
:10C270002F756C7505F060F94FF0804347221A85E1
:10C2800002F568729A853E4E85229C811A8026F0BE
:10C290004BFC25F037FAB6F8F0213A4BA6F8E0420D
:10C2A0001A70394B02221C70384BA6F8F4721A70BF
:10C2B0000423A6F80833364B10221A613846F7F7E4
:10C2C000C9FF344E45F2317380B298424FF00101FC
:10C2D0004FF0250008BF3470F7F7B8FF2520012183
:10C2E000F7F7B4FF0020F7F7B5FF40F2011380B273
:10C2F000984202D1284B01221A70254B10225A6114
:10C300003178264B01B10E2200261D4C1A7004967E
:10C31000059606960796B4F9A031194E042B02D063
:10C320001F4F00233B7026F061FD1E4B00283FD0BD
:10C330001D4A1278E2B301223BE000BF244F0108FE
:10C3400000C00008A24F0108AD4F0108DA4F0108F4
:10C350000050010800CE002024C50020FCCD0020A4
:10C36000F8CD00201750010804CE002068300020CE
:10C370001C5001082D500108D2600020CC61002023
:10C38000883100208464002032C50020543600200B
:10C390000010014022C50020C0B0002082360020DD
:10C3A000F56300209D700020C0BB0020EF600020DE
:10C3B0000022A94F1A70B6F9F0313A78934261D051
:10C3C000062B36D101203DF045FC3B78052B05D8E6
:10C3D000B4F84C302B83B4F89C306B839F4B87228E
:10C3E0001A709F4B642200201A7024F037FE002040
:10C3F00024F0BEFD012024F0BBFD2B782B771BB968
:10C4000024F056FF24F0D0FE964B1A889B88EA83CE
:10C410002B8495F8233085F82230022385F82330C9
:10C42000914B1B7885F82A30002385F8243005933A
:10C430000693B6F9F031052B24DC3B78052B21D986
:10C44000012024F00BFE2B8B0120A4F84C306B8BC9
:10C45000A4F89C303DF0FEFB2B7F0BB924F0B8FC18
:10C46000804BEA8B1A802A8C9A8095F8223085F8C6
:10C47000233095F82A301BB17C4B012283F824200D
:10C4800022F0B0FDB6F94032042B1CBFB4F8F031F5
:10C490003B70B6F9F031062B04D16423A4F84C307C
:10C4A000A4F89C30B6F900310B2B03DD012385F88D
:10C4B00026300AE06E4A002313806E4A85F8263043
:10C4C000117811B113703FF0FBFD3EF0E3FD6A4BB4
:10C4D00018700520F7F7BEFE684B10B9684A527A0B
:10C4E00032B91A8892B21AB1644A4FF416711180A7
:10C4F000198889B241B90220F7F7A8FE142001215A
:10C50000F7F7A4FE00F09BBC5E4F3B789BB1B6F9F9
:10C51000F0311BB126F06AFC28B907E026F066FC72
:10C520000028F7D107E0504B1B7823B9E88A3EF08A
:10C5300041FEA6F818022B7BDA0713D5B6F9F031C5
:10C54000062B06D100204FF4C871D622D72322F043
:10C55000B3FC0C22D62300200B2122F0ADFC4A4B69
:10C5600002221A7042F0C8FC95F82330DFF8FC80F4
:10C5700013B900200490A0E0B6F8F031012BF8D9EF
:10C58000052BF6D00220F7F765FE002858D1049954
:10C590003E4A4B1C9BB20493B4F90432049802EB5C
:10C5A00043031B8B834280F08880B4F94032042B14
:10C5B000374B1A7824D1374B9AB1B4F95422082A50
:10C5C0000FD1B4F9A021042A0BDC1B881BB9B6F8E3
:10C5D0009C200A3209E0012B10D1B6F84C200A3217
:10C5E0000AE01B8823B9B6F89C201E4B9A8005E010
:10C5F000012B03D1B6F84C201A4B1A80002018E00A
:10C60000184B7AB1B4F95422082A0BD1B4F9A021FD
:10C61000042A07DCB4F84C200A321A80B4F89C20B3
:10C620000A3204E0B6F84C201A80B6F89C209A80B2
:10C6300001203EF021FE23F07FF8002104913CE030
:10C64000B4F94032042B94D1124B1B8823BB98F8C9
:10C650002B3043F0010325E084640020DE450020F8
:10C66000DF45002020300020AE700020CC6100208B
:10C670004AC50020EF6300209C700020D860002095
:10C68000903000205436002032C50020244F01088D
:10C69000F163002076360020012B05D198F82B306D
:10C6A00043F0020388F82B3095F82B30032B04D18C
:10C6B000864A002382F82B300493DFF8548298F8DE
:10C6C00000305BB1824BB3F800901FFA89F9B9F1E1
:10C6D000000F03D123F030F888F800902B78CBB905
:10C6E0003B78BBB196F85A3323F0020386F85A33ED
:10C6F00096F8BA3223F0020386F8BA3296F8CE32B0
:10C7000023F0020386F8CE3296F86E3323F002034C
:10C7100086F86E336F4B07981A8892B2904200F0F9
:10C720008A801B886C4A9BB207936C4B0620198841
:10C73000DFF8E081118000221A80F7F78BFDB8F84E
:10C7400000302833984215D93DF058FF0620F7F7FE
:10C7500081FD96F83810A8F80000B6F94C200020AA
:10C760003DF0E0FE012096F88810B6F99C203DF0DF
:10C77000D9FE07E00620F7F76DFDB8F80030283B3A
:10C780009842E1D325F03AFD2A78012A45D1544B4D
:10C790001B7853B1DFF88081042088F8002027F04F
:10C7A000EFFB002388F8003001E04E4A13604E4B47
:10C7B00001221A704FF000085FFA88F008F10108B2
:10C7C00027F0DEFBB8F1090FF6D10220F7F742FDA2
:10C7D000DFF8488160B9B6F9F031022B01D0042BA3
:10C7E00006D1424B1B78012B14D1414B1B788BB1E6
:10C7F000B6F904320A2B05DC082B06DD3D4B1B780D
:10C80000012B02D13FF0A2FF02E03B4B01221A7044
:10C81000002300E0012388F800302B785BB9304B0F
:10C820001B7843B9354B1B781BB1304B1B78012B60
:10C8300001D13FF08BFF26F0D9FA30B1304B1B7895
:10C84000032B02D8012028F002F82E4B1A7802F0B0
:10C850000F02072A08D91A7895F82C20012A03D14B
:10C860001A4A002182F82C101A781B7803F00F0363
:10C87000072B00F2EF8095F82C20144B002A40F093
:10C88000E98093F82D104FF0010E022983F82CE077
:10C89000154804D180F800E083F82D2003E0013131
:10C8A000027083F82D1025F0F1FFB6F9A031164A79
:10C8B000042BB6F9B43133D1144931F8230001EB1C
:10C8C00083035B88013043435B1033E0CC6100207D
:10C8D000E6600020D66000200C640020E8450020BF
:10C8E0008564002020640020E836002033C5002045
:10C8F00040C50020EB360020E6CD0020EF6300208D
:10C90000E4450020D4600020BC6000208436002074
:10C910002CC50020F6CD00200B640020E7CD0020C0
:10C920003749088D374980B231F81310431C4B4307
:10C930007D214B43136024F0C3FA2B78012B0DD0DB
:10C94000314B1B7853B1DFF8D8800123042088F8DD
:10C95000003027F015FB002388F800302B78022BDD
:10C9600010D0012B02D0284B1B785BB9274B1B78CA
:10C97000002B5CD0264B1B78012B03D1254B1B7859
:10C98000002B54D00220F7F765FCDFF8988068B9D7
:10C99000B6F9F031022B01D0042B07D11B4B1B78C9
:10C9A000002B41D01B4B1B78002B3DD0B6F9043235
:10C9B0000A2B05DC082B0EDD174B1B78012B0AD147
:10C9C000124B1B7823B1124B187808B927F0D8FA0C
:10C9D0003FF0BCFE11E0114B012202201A70F7F764
:10C9E00039FC50B9094B1B783BB1094B1B7823B973
:10C9F000084B1B780BB127F0C3FA002315E000BFEA
:10CA000000140040E862010885640020EF63002004
:10CA100033C5002040C50020EB360020E6CD0020C5
:10CA20000B640020E7CD0020012388F8003095F842
:10CA30000090DFF8A082B9F1020F0BD1A14B1B7857
:10CA4000042B07D10123002088F8003027F098FA42
:10CA500088F800902B780BB125F002FB28F0AEFA95
:10CA6000994B1B78092B11D0984B1B889BB2042B38
:10CA70000CD96A7B934B002103EB8203DB685F20B8
:10CA8000009340F205420B461FF00CFB8E4B1B78C7
:10CA9000092B0FD0DFF83482B8F800309BB24BB1CD
:10CAA000B8F800309BB2042B04D822F09BFA002384
:10CAB000A8F800303978002900F0A681844B1A7854
:10CAC0001AB1022904BF01321A703FF0DBFA2B7B46
:10CAD000DB0704D57F4B1B780BB124F0E9FB002763
:10CAE0004FF0060895F82330BB420ED10CA908FB85
:10CAF0000713B6F8402240F26D1002F5A0620093D1
:10CB0000D82192B23B461FF0CDFA0137042FE9D16C
:10CB10002B7B9F0701D43FF0B5F96E4F3B7B580745
:10CB200001D43EF0F3FD3B7B190701D43EF00AFF30
:10CB30003B7B03F0100303F0FF0033B9B6F940323A
:10CB4000042B18BF01203EF097FB22F0F5FD0020DA
:10CB500024F02CFC3B7B9A060BD55F4A117841F000
:10CB600001011170B4F904220A2A02DC5B4A022195
:10CB700011705B060BD5584B1A7842F002021A70FE
:10CB8000B4F904320A2B02DC544B02221A705449C5
:10CB9000544B002291F8009093F800800A701A70AC
:10CBA00022F060FCE0B922F077FCC8B922F092FCD8
:10CBB000B0B9B4F9F031062B12D0B4F91030022B11
:10CBC00001D0042B02D1464B01221A70464BB3F917
:10CBD0006030022B01D0042B02D1424B01221A708B
:10CBE0003F4B1B784B4503D13E4B1B78434507D049
:10CBF000B4F94032042B0CBF002001203EF03CFB76
:10CC0000314B1B78032B09D8502202FB034393F8C6
:10CC10004E2042F0020283F84E202CE0072B28D150
:10CC2000324BDB79032B26D1314B1B7893B1314B3F
:10CC30001B78D8070ED5304AB4F8F03112784AB9CB
:10CC40009BB25A1F012A05D9012B03D9B4F904322A
:10CC5000092B02DD254B0022DA71244B1422DB79EB
:10CC600002FB034393F8422242F0020283F842227D
:10CC700001E0092B06D0154B1B889BB22A2B01D84B
:10CC800022F0B0F93B7893B194F8BA3243F0020342
:10CC900084F8BA3294F8CE3243F0020384F8CE32EC
:10CCA00094F86E3343F0020384F86E332DE0064AA5
:10CCB0001278082A22D10D4A117A022925D113723D
:10CCC00023E000BF903000200C620020DC600020D8
:10CCD00032C50020CC610020E4CD0020E5CD00204D
:10CCE00086BC002087BC002088310020E163002042
:10CCF000AE7000201DBD00209C7000200A2A04D1C7
:10CD0000744A917A022908BF9372734B1B78022BE5
:10CD100003D1724BDA8A724B1A70724B1A780AB1CD
:10CD2000013A1A70704B01224FF000081A7087F810
:10CD30000C803EF0AFF96D4B18706D4B1B78092BD2
:10CD400056D1644B5B7A032B52D1B4F90813694B6B
:10CD500007290AD0684A0A2000FB0122517819707D
:10CD60009178D27859709A7007E042221A7049225D
:10CD70005A704E229A7083F8038097F82E3043B190
:10CD800000200322014620F0E9FE544B002283F8E4
:10CD90002E2058483AF04AFEB4F81C330D2118B240
:10CDA0004143564A575C11462FB90028C4BF03F1CE
:10CDB000FF33A4F81C3313781BB1514B1B883BB9CC
:10CDC00011E0504FD85DC85401330D2BFAD1F4E770
:10CDD00092F8B6303BB94B4FCA18D85D01330D2BD2
:10CDE00082F8B600F8D100200146022220F0B6FEFB
:10CDF000454F3B7843B1B4F95081B8F1000F03D1EE
:10CE00003CF0A6FD87F800802B78404F33B93B7883
:10CE100023B122F06BF8334B01221A70B6F90432B9
:10CE200000220A2B3A700ADD394B1978032908BF12
:10CE30001A701B78012B02D1354B03221A70B6F9F8
:10CE40005031012B12D10320F7F704FA48B1022325
:10CE5000A6F8503196F8523143F0020386F8523169
:10CE600004E00220F7F7F6F90028F0D025F0BEFF25
:10CE700050B1194B1B783BB9264B1B88B3F5BE7FCD
:10CE800002D8254B02221A7095F82320002A00F0C0
:10CE9000EA80B6F8F01121B9204B1B78002B00F086
:10CEA000E280134B1B78072B48D10A4BD879022814
:10CEB00044D10239022935D8B6F90412092931DCE6
:10CEC00017490978C9072DD50849097851BB0321AD
:10CED00029E000BFE1630020AE700020CC6100209B
:10CEE000B45D002054360020EF4500209C700020E7
:10CEF0000C620020613000200E5801084A5C0020BE
:10CF00000E5D0020684F0108B65D00208864002097
:10CF1000D3450020B0BC0020E9360020FB63002090
:10CF20001DBD00200021D971DB79142101FB0363B1
:10CF300093F8421241F0020183F84212B6F84032EF
:10CF400033B1042B43D1A949B1F9001000293ED1D6
:10CF5000A74FA849B7F84C00B1F90060B7F93810ED
:10CF6000A54F5200B7F900704FF0080EBF1B574392
:10CF7000A24A97FBFEF7525607441644A04A00B255
:10CF800032F81120301A42434FF4806192FBF1F2E3
:10CF9000069E3A4492B230B2461D11B2B142994E49
:10CFA00007DC0538814204DB317811B996490978EC
:10CFB00069B1964F042B3A800CBF002001203EF04F
:10CFC0005BF922F0B9FB3F88002306973370B4F871
:10CFD00040321AB2012A06D0042A44D1834AB2F957
:10CFE0000020012A3FD18A4A814FB2F90060894A64
:10CFF000B7F98810B7F89C00B2F9002095F82370B3
:10D00000921B7F005743082297FBF2F7824A07449E
:10D01000525600B21644814A301A32F811204FF4A9
:10D0200080614243059E92FBF1F23A4492B230B2E3
:10D03000461D11B2B142734E07DC0538814204DB54
:10D04000317811B97049097869B1704F042BBA80F1
:10D050000CBF002001203EF00FF922F06DFBBF88CD
:10D0600000230597337024F09FFD6D4B1B78012B37
:10D0700003D12B7B43F008032B7395F82F3053B16A
:10D080000123A4F850313FF0DBFB664A0023A4F8EB
:10D09000503182F82F30644F3B78002B3FF43BA98E
:10D0A00062480688B6B26EB901203CF027FE3E7099
:10D0B00021F098FF5E4B03221A7025F097FE08B10D
:10D0C00024F0C0FA59494FF416730B8000265027FC
:10D0D00007FB0643B3F9103013B9F0B224F042F95C
:10D0E0000136042EF4D1504B1A78D2B2012A40F006
:10D0F0002F824F4B4F4FDFF810811A7040F2DC53F4
:10D100003B8098F80030B946012B4B4B31D90022B7
:10D110001A8088F800203AF033FEB4F9F031ABB150
:10D1200095F824302BB9454B18883EF003F83D4B59
:10D13000D88295F824203B4B012A04BF93F8252080
:10D14000DA82E88A3EF036F8A4F818023C4B1A78E6
:10D150003C4B1A703C4B1B7813B12B7024F0A8F891
:10D160003EF090FE3EF0D2FA00203CF0C7FD03F006
:10D17000E1BE198889B209B188F8002019221A8005
:10D18000B9F800309BB2B3F57A7F40F2D480042026
:10D19000F7F760F84304F3D594F8523143F00203F3
:10D1A00084F85231B4F950314BB998F8003033B9A2
:10D1B00041F088FE0123A4F8503103F0BBBE0023E8
:10D1C000224AA4F85031137025F010FE10B124F05B
:10D1D00039FA79E02B7B43F060032B73B4F9F0311B
:10D1E000022B35D001203DF0F9FC34E076360020EA
:10D1F00088310020C8C50020C4C500202C6A00204A
:10D20000366A00202AC50020FB6300202030002061
:10D21000CAC50020C6C500204A6A0020546A002002
:10D2200054360020CC610020EF600020D860002040
:10D2300032C50020D0600020EA6000207264002027
:10D2400070640020CCC50020746400201E3D0020C6
:10D250009C4B01221A70B4F9F0319B4E052B0FD074
:10D26000022B0DD03278570708D4984A1178B4F9B8
:10D27000042209B1022A00E0052A25DC042B23D070
:10D2800025F0B4FD30B906200121F6F7DFFF0220BA
:10D290003CF03AFF33785E0705D503203DF054FC9F
:10D2A00003203DF073FC8A4B1B780BB13DF07EFEF2
:10D2B000B4F904320A2B02DC864B00221A80864B1A
:10D2C00001221A703FF042FAB4F90432022B1FDC3B
:10D2D000B4F9F03133F004061AD0804B0B225A73A4
:10D2E0003DF0D8FE7E4AB4F904127E4B02EB4102B7
:10D2F00058B1B2F85210B4F91822C2F196024A435A
:10D30000962192FBF1F292B201E0B2F852201A801B
:10D31000B4F9F031042B04D102203CF0F5FE21F0E9
:10D3200097FD714B1B78002B03F004866F4B022294
:10D330001A7003F0FFBD7D203CF0CEFE012024F0EA
:10D3400035F8DFF8B88140F26A3AB9F800309BB29C
:10D35000002B00F0D780B8F800309BB2B3F57A7F8D
:10D3600000F2D080B8F800309BB2534502D80020BC
:10D3700024F01CF80420F6F76DFF4004E5D55C4E60
:10D380005C4F32785023B95C5A43142303FB0123CA
:10D3900023449A7C42F002029A7426F061FD18B987
:10D3A000B4F9F031062B0FD1012026F065FD58B1FC
:10D3B00000200146032220F0D1FBB4F9F031062B06
:10D3C00002D14D4B01221A7096F80090484AB9F1EB
:10D3D000000F03D0B9F1010F18D03DE03B78022BCC
:10D3E00034D1B4F91030DFF8188133B9042025F0B6
:10D3F00089FC98F84C30238235E0052025F082FC2A
:10D40000238AA4F8109088F84C304BE097F801A0DC
:10D41000BAF1020F1AD1B4F96030DFF8E48053B9E1
:10D42000042025F06FFC98F84D30A4F860302B4BA9
:10D4300083F802A036E0052025F064FCB4F86030E3
:10D4400088F84D300023A4F860302BE0B4F90031A7
:10D45000092B27DC48461DE0B4F91010B4F9603000
:10D4600019B14BB91370012203E02BB101231370E2
:10D4700002221A4B9A7015E0B4F90031092B0CDC2A
:10D48000164B9B78012B03D9022B0BD1012000E016
:10D490000020307023F06CFD04E00D2BD4BF01237D
:10D4A0000023337033780222FA54A37C1343A3740D
:10D4B00094F86230134384F8623023F0B9FD03F02E
:10D4C00039BD00BF1EBD00201DBD0020AE70002074
:10D4D0009C700020B0BC0020E8360020CC61002009
:10D4E000244F0108DC600020EF63002041C50020CC
:10D4F0000C620020E163002048300020D060002052
:10D50000903000203C203CF0E7FD3B889BB2FBB90B
:10D51000B44FCC2657F8043F00200093B1B240F23C
:10D520000C4203460B3E1EF0BDFD272EF2D14FF4F8
:10D53000967004F0C5F9AC4B00221A701A78002AD4
:10D54000FCD0AA4B012018733CF084FB21F04AFD6B
:10D55000A54F3B78062B40F0E080A54F40F6B8334E
:10D560003B80B94640F6C418B9F800309BB2434539
:10D570004ED90420F6F76EFE8104F5D59D4B0122AD
:10D580001A70B4F84032023B9BB2934243F2D28409
:10D59000994B50221B7899495A43C85C142606FBC4
:10D5A00000222244967C46F00206967495F82320C9
:10D5B0008E4E2AB9022786F823700592069202E061
:10D5C000013286F823208E4A12787AB1B4F95422B7
:10D5D000082A0BD1854A92F82360022E06D1B4F9AD
:10D5E000A061042EDCBF032682F8236095F8232077
:10D5F000032A03D97D4A012682F82360072B43F0D2
:10D600009984022843F096840023CB7103F092BCE6
:10D610007D203CF061FD012023F0C8FEDFF8D081C1
:10D6200040F6C41A40F6461BB9F800309BB2002BF6
:10D6300038D0B8F800309BB2534533D8B8F8003032
:10D640009BB25B4502D8002023F0B0FE0420F6F721
:10D6500001FE8204E8D5B4F84032023B9BB2012BB4
:10D6600043F26884644A654B107850211E5C48433D
:10D67000142101FB06012144887C40F002008874DB
:10D680005A4991F8230010B1002081F823000721A6
:10D6900011700222DA7194F86A32134384F86A3204
:10D6A00003F048BC3C203CF017FDB7F800801FFA9F
:10D6B00088F8B8F1000F30D14F4F012338784D4A28
:10D6C0009842137007D84F4E337004F067FE86F807
:10D6D000008003F0F8BC062813D1484B9B79012B3E
:10D6E0000FD13DF0D7FC60B1474B1B784BB1474B96
:10D6F0001B7833B1464B1A78D2F1010238BF0022B1
:10D7000006E03B78092B08D0424B1A781AB1002268
:10D710001A7003F01BBC0122FAE733480378022B8E
:10D7200040F0A981334A344F012313703A78092A13
:10D7300004D1B4F90823042A00F04381DFF8B08053
:10D7400040F2DC53A8F80030C246BAF800309BB271
:10D75000B3F57A7F40F284800420F6F77BFDC305A1
:10D76000F3D52D4B1E78002E43F0E4832A781F4B0F
:10D77000022A26D1B4F9F021062A1CD026F070FB2B
:10D7800040B1012026F078FB20B13046314603221B
:10D7900020F0E4F923F01CFBB4F800310A3B9BB203
:10D7A000012B04D9B4F9F031042B43F0C38321F0E9
:10D7B0009DFB03F0BFBB01221A7023F079FD03F03B
:10D7C000B9BB012A3AD13A78102A02D90A4A102163
:10D7D0001170124A1278042A3A7821D10E2A2BD1DC
:10D7E0000F2127E0DC300020EF600020CC6100201A
:10D7F000D060002032C500200C620020E1630020D0
:10D80000F1630020F2360020C0B00020C1B000203B
:10D81000FC6300200CCE0020EF630020903000203D
:10D820000D2A02D1C04A0E2111703A780B3A012A12
:10D8300002D80A21BC4A117002221A701E785EB901
:10D8400026F00EFB40B1012026F016FB20B1304639
:10D850003146032220F082F923F02AFD03F06ABB4F
:10D860007D203CF039FC012023F0A0FDDFF8F4928C
:10D8700040F26A3BBAF800309BB2002B53D0B9F8A3
:10D8800000309BB2B3F57A7F4DD8B9F800309BB227
:10D890005B4502D8002023F089FD0420F6F7DAFC6E
:10D8A000C005E7D5B4F9A031062B23D09F4B5A21F0
:10D8B00000930F20002340F205421EF0F3FB9C4E24
:10D8C0004FF4617003F0FCFF002302200421337049
:10D8D000F6F7BCFC3378002BFCD0964B01221A7073
:10D8E000934B0020187023F061FD4FF41672924B99
:10D8F00002F08AB8914B5A21009340F2054200236E
:10D9000077201EF0CFFB4FF4617003F0D9FF8A4AF5
:10D91000002102201180F6F799FC14200121F6F76E
:10D9200095FC03F007BB3C203CF0D6FBB8F8001098
:10D9300089B2002940F09F803A78502303FB0243CC
:10D940009E7C93F83A0046F002069E7493F8266097
:10D9500040F0020046F0020683F8266083F83A00A1
:10D960007748784B80F827209A5CA4F8E01280F87A
:10D97000282009223A700422A4F80823724A734E20
:10D980001278A4F8F422724A127822B103225A7251
:10D9900024F070F801E001225A7296F8E23243F066
:10D9A000020386F8E23296F8F63243F0020386F874
:10D9B000F63296F80A3343F0020386F80A33032658
:10D9C00059E0B4F9E0625F4FFEB97A7A614F032AF9
:10D9D00010D13B7004F060FC5F4A60483346195C2C
:10D9E00099540133082BFAD124F044F8584B012202
:10D9F0001A7001E0564B1E70002023F0EBFF00234D
:10DA000006463B7039F0C8FF35E07B7A032B10D017
:10DA1000B4F81C8323F090FF4D4B06461B78C3B12E
:10DA20005FFA88F80323A4F81C837B7224F022F8A1
:10DA30000FE04B4BB4F91C230D264848464906FB22
:10DA400002360023F25C1A545A540133082BF9D1E0
:10DA5000DEE794F8E23243F0020384F8E23294F80D
:10DA6000F63243F0020384F8F63294F80A3343F0B6
:10DA7000020384F80A332E4F3B78032B40F0588280
:10DA8000384F40F2DC533B80B946B9F800309BB2C6
:10DA9000B3F57A7F40F280810420F6F7DBFB810545
:10DAA000F3D5214E50223378DFF898805A4318F886
:10DAB0000390142101FB09222244917C092B41F09F
:10DAC00002019174214F1AD1B9F1030F17D126F039
:10DAD000C7F920B1002001464A4620F03FF897F8E8
:10DAE000F63243F0020387F8F632B7F9F031062B2D
:10DAF00005D1B4F9E032012B04BF0E4A137033781C
:10DB0000052B38D1B7F8A0110AB2052A02D007397F
:10DB1000012929D898F805200A4B0AB9012200E00A
:10DB200000225A7103F0C9BB0C6200207C4F01082F
:10DB3000EF60002048300020D86000204A500108E3
:10DB4000CC610020E16300206F6400208831002058
:10DB50006E640020B55D002058300020FF45002095
:10DB60004A5C0020D0600020062A3FD1002388F8BC
:10DB7000053003F0A2BB022B05D198F80220AABB06
:10DB8000B14A937032E0032B1BD198F80310AE4AD0
:10DB900069B9B7F900110B2903DD0123D37003F034
:10DBA000C9B94FF00201D17020D103F0C3B90229E5
:10DBB0001CD1B7F90011092918DD0023D37003F037
:10DBC000B9B9062B12D1B7F9F021062A05D198F878
:10DBD0000620012A0AD1022106E098F8061002293F
:10DBE00004D1042A02D00321974A9171974A1278EE
:10DBF000D2070ED59649B7F8F021097849B992B203
:10DC0000511F012905D9012A03D9B4F90422092A8F
:10DC100008DD072B06D198F80720022A02D18A4A8C
:10DC20000321D1718B4A12789AB903F0FD010829BA
:10DC30000FD118F8031001290DD1502101FB0377F2
:10DC400097F8261041F0020187F826107E49CA5441
:10DC500093E00C2B6BD85020584318F8032014265F
:10DC600006FB02003844867C022A774994BF0132C1
:10DC7000002246F00206052BCA548674724A0CD163
:10DC8000B4F9A0110429517903D1032905D1002148
:10DC900002E0022901D10321517150215943D05C86
:10DCA000142202FB00123A4492F90A20002A02DAF6
:10DCB000654A0021D1545020634A5843D65C142150
:10DCC00001FB06010F44B97A5020CF0748BF00215D
:10DCD00000FB03F048BFD154D15C142606FB0100C1
:10DCE0002044807A860707D5092B07D0052B11D051
:10DCF00055490020C8540DE0092B0BD1032909D147
:10DD00005549B1F90010072904D1B4F9E01209B955
:10DD10004D484172D15C50225A43142303FB012326
:10DD20004E4A13449A7C42F001029A7425E04C4812
:10DD30000D3B0C2202FB0302517901291DD9D77A30
:10DD4000072947F00207D77201D804290FD10C2602
:10DD500006FB0302117906FB030303299CBF013173
:10DD600011711A79032A08D900221A7105E0137972
:10DD70000BB9012300E000231371002026F07CF88A
:10DD8000002803F0D780374B1A78374B13F812204E
:10DD9000364B1A7003F0CEB87D203CF09DF901207F
:10DDA00023F004FBDFF8D08040F26A3AB9F8003083
:10DDB0009BB2002B00F08E80B8F800309BB2B3F518
:10DDC0007A7F00F28780B8F800309BB2534502D8C2
:10DDD000002023F0EBFA0420F6F73CFA8005E5D5A5
:10DDE000DFF89880502198F80030174E5943F25CC4
:10DDF000142000FB02112144887C184F40F00200DF
:10DE00008874B4F900110B293ADD1949097811B960
:10DE100018490978A1B3032B08D1012A30D10A236C
:10DE200088F800300023B37203F084B80A2B27D19E
:10DE300032BBF378012B23D1032288F80020024A59
:10DE4000D37003F077B800BFE16300201DBD002050
:10DE50009C700020CC61002090340020883100208C
:10DE60001C3100200A640020A53500205536002012
:10DE7000EF63002040C50020D06000200C6200202D
:10DE800025F0EEFF18B9B7F9F031062B0FD10120BC
:10DE900025F0F2FF58B10020014603221FF05EFE7C
:10DEA000B7F9F031062B02D1A24B01221A7098F873
:10DEB00000300BB9012202E0012B02D102229E4B5D
:10DEC0009A70062388F800300123B37123F0B0F86C
:10DED00003F030B83C203CF0FFF83A8892B23ABBED
:10DEE000964B01211970964B964F187868B91970A6
:10DEF00040F0E8FF3B78092B05D08F4B05225A7381
:10DF0000914B50221A80914B0AE01A703B78092BF2
:10DF100005D0894B06225A738B4B50221A808C4BAA
:10DF200000939920D82140F2054200231EF0BAF850
:10DF300088480378092B40F02686B4F9F031864FE3
:10DF4000DFF800821BB124F051FF70B907E024F024
:10DF50004DFF0028F7D198F80030062B0AD0B7F90A
:10DF600000310B2B7D4B0BDC48E07D4B1B78002BED
:10DF7000F1D1F4E77B4B9B79022BF0D103F09DB9F3
:10DF800098F80020032A39D1764AD278012A35D16F
:10DF90001B78BBB1744B1A88052A02D1022201F00A
:10DFA000CFBA322A02D1142201F0CABAB2F5FA7FEE
:10DFB00002D1C82201F0C4BA012A41F2C282520839
:10DFC00001F0BEBA694B1B78002B03F07681B4F8E0
:10DFD00030331AB2002AC4BF03F1FF33A4F8303340
:10DFE000B7F830130BB2022B43F36781012023F003
:10DFF000B3FD081AA4F8300303F05FB91B7843B1EE
:10E0000098F80030062B04D1564B9B79012B03F076
:10E01000548198F80030062B0AD1524A92793AB9C5
:10E02000534A127822B1534A12780AB1524BE1E1B5
:10E03000524A1278012A16D1012B2FD9062B09D169
:10E04000484B9B79012B05D14D4B1B7813B14D4BA0
:10E050001B781BBB4C4B1A780AB1013A1A703DF081
:10E0600011FF02F067BF022A18D1012B16D9062B27
:10E0700009D13C4B9B79012B05D1414B1B7813B146
:10E08000404B1B7853B9414B41491A8810B2884222
:10E09000C2F25087013A1A8002F04CBF012025F0ED
:10E0A000EBFE90B1B7F81C331AB2002A04DD013B35
:10E0B000A4F81C3302F03EBF364B1A88002A02F047
:10E0C0003987013A1A8002F035BF25F0D5FE0028C5
:10E0D00073D0314B1A78A2F14201182901D8013AC4
:10E0E0005FE0A2F13001082901D8013259E02D2A60
:10E0F0001DD00BD8262A53D002D8202A15D051E0A3
:10E10000282A4BD0292A4DD128224AE03F2A0CD078
:10E1100003D8392A46D15F2243E0412A03D05F2A3F
:10E1200040D12D223DE020223BE0302239E029225F
:10E1300037E000BF48300020CC61002032C500200D
:10E14000CCC500200C620020DC6000205D5001087E
:10E15000AB530108EF60002088310020EF630020FE
:10E16000AE700020E16300204AC5002040C50020B9
:10E1700022C50020FE630020EE3600200CCE0020D9
:10E18000C0B00020C1B000205E360020F036002074
:10E190001AFCFFFF0E5D002055360020262200E00D
:10E1A00025221A70A44A19781278A44B002003F88B
:10E1B000121025F077FE02F0BDBEA14B1B78CBB14B
:10E1C00098F80030062B15D19E4B9B79012B11D16D
:10E1D0003CF060FF70B19C4B1B785BB19B4B1B7894
:10E1E00043B19B4B1A7851B2042901F3FC810132EF
:10E1F00001F0F8B998F80030062B13D1914B9B79B8
:10E20000012B0FD124F0F2FD60B1924B1B784BB182
:10E21000012B01D1904BEDE0022B43F04E80002208
:10E220008E4BEFE0B7F9F031062B16D198F800309D
:10E230003BB9844B1B78032B0FD1894B1A782D2ABD
:10E2400008E0012B09D17F4B5B78032B05D1854B6F
:10E250001A781E2A84BF023A1A70032022F0BCFEEC
:10E2600098F80030012B06D8764AD35C012B02D1F6
:10E27000002024F047FD98F80030052B5DD1714A4D
:10E280005279012A40F08180B7F9A021082A7CD177
:10E29000754B1B78002B36D1744B754A1B7843B3F2
:10E2A0001388B3F5487F03D21433138002F042BEC3
:10E2B000B3F52F6F03D23233138002F03BBE43F22B
:10E2C000A9218B4203D86433138002F033BE43F696
:10E2D00079218B4203D83233138002F02BBE43F6F0
:10E2E000EA518B4294BF143343F6FF53138002F07C
:10E2F00021BE138843F6FE518B4202F21B86013386
:10E30000138002F017BE012B08D15A4B1A78012A4C
:10E3100042F21086013A1A7002F00CBE022B4FF046
:10E32000000203D1544B1A7002F004BE032B42F0DA
:10E330000186524B1A7002F0FDBD0B2B17D1504ACB
:10E34000127842B14F4B1A78012A02F2F38501325A
:10E350001A7002F0EFBD4C4A1278B2B14B4B1A78EA
:10E36000002A02F0E785013A1A7002F0E3BD0C2B97
:10E370000BD1474A127842B1464B1A78082A02F26A
:10E38000D98501321A7002F0D5BD434A1278F2B134
:10E390000A2B1CD12B4B9B7A012B18D8BB8C033B2F
:10E3A0009BB2012B13D8B4F8302313B2002B42F3E5
:10E3B000C185B4F8443319B2002942F3BB85013A50
:10E3C000013BA4F83023A4F8443302F0B3BD21F09C
:10E3D00081F800286AD098F80000002866D1194B0F
:10E3E0001A78012A62D12D4B1B78002B5ED0012BAD
:10E3F00005D12B4B1A78002A02F05F876DE0022BC3
:10E4000003D1284B1A7002F058BF032B42F05587F6
:10E41000254B1A8811B2022902D1188002F04DBF93
:10E420001AB94FF6FD7201F0EFBA9031C2F245878A
:10E43000013A01F0E9BA00BF0A640020A5350020C6
:10E44000FC630020E1630020C0B00020C1B00020C8
:10E45000FD630020FF63002000640020C0BB00209B
:10E46000DE450020DF450020086400200564002010
:10E4700056360020A43500200664002007640020E2
:10E4800004640020E54500200264002003640020AD
:10E4900001640020F060002009640020F0450020A5
:10E4A000163D00201D3D00203030002020F0DAFF16
:10E4B000A8B198F8003093B9B24B1B78012B0ED15C
:10E4C000B14B1B78012B0AD1B04B1A78052A42F2C6
:10E4D000F4860F2A01D1092294E7013A92E798F8CD
:10E4E0000030052B40F0F182A64B5B795BB9B7F9A0
:10E4F000A0317BB9A64A4FF4006199520233B3F5BB
:10E50000B46FFAD106E0012B04D1A24B1B78012B8A
:10E5100002F02687DFF86C9200264FF0500A98F838
:10E5200000B0B34515D119F8063093B90AFB06734C
:10E53000B3F9100001280CD1B4F94032B34205D12F
:10E5400022F038FD22F05EFD3CF096FE584622F0A7
:10E5500009FF0136042EE2D198F80030072B56D17E
:10E56000884AD279022A35D18B4B1B783BB18B4B31
:10E5700093F8240000280CBF0320022000E00120B3
:10E58000B7F94012864B00228E46824280F2068204
:10E59000BEF1040F11D11F880FFA87FCBCF1000FE8
:10E5A000C4BF07F1FF371F809F880FFA87FCBCF1BB
:10E5B000000F0DDD013F9F800AE033F821700FFA54
:10E5C00087FCBCF1000FC4BF07F1FF3723F82170AF
:10E5D0000132DAE7032A1AD1724B1B78022B40F082
:10E5E000DD81B7F90432092B00F3D881B4F87C320D
:10E5F0001AB21E2ACCBF1E3B0023A4F87C3222F0A4
:10E60000A3FC664B1E22A7F878021A73C6E1A3F199
:10E610000B02012A0AD8502202FB0377BB8C1AB2E4
:10E62000002A40F3BB81013BBB84B7E1062BDFF836
:10E63000549166D199F80630022B40F08F8040F05B
:10E6400041FC564897F82E32C18A43F002039629BE
:10E6500087F82E32544B28D94F4A1278D2B1534AF8
:10E660001178142259B11978502019F8013041431A
:10E6700002FB03122244138A063B138233E019780B
:10E68000502019F80130414302FB031323441A8A36
:10E690001E3A27E01A78502319F802105A4314231F
:10E6A00003FB012323441A8A1BE01A78502319F82C
:10E6B00002E05A43142303FB0E2323441A8A0FFA61
:10E6C00082FEBEF1000F0EDDDFF8CCE09EF800E028
:10E6D000BEF1000F05D01E2903D90439C18202F012
:10E6E00029BC013A1A82304B264A1B785021D25C51
:10E6F0004B43142101FB02331F44388A3CF01AFDBE
:10E700004AE1052B16D199F80530022B26D128496C
:10E710000B7813B1012001F08CBBB7F8C82111B2FE
:10E72000B1F5967FC6BFA2F59672A4F8C821A4F8E9
:10E73000C83133E193B999F800307BB93B8A43B9CA
:10E74000164B01229A701A7B042042F020021A73A1
:10E7500002E0012B02D1052024F0D4FA98F8003011
:10E76000012B2CD199F801304BBBB7F860300BBBB3
:10E770000A4B02229A701A7B042042F040021A735C
:10E780001BE000BFE1630020F14500204C30002079
:10E790008A640020F6630020B8600020CC6100206D
:10E7A00020300020AE7000200C620020EC600020C1
:10E7B000F5630020012B02D1052024F0A3FAB7F85D
:10E7C000F011042912D198F80030062B0ED199F8D7
:10E7D0000630032B0AD19B4A1378002B6BD04120C3
:10E7E000591EB3FBF0F3CB1A137064E098F80020C5
:10E7F000062A1BD199F80630012B17D1B7F804323D
:10E800006BB9002957D1904A13780C2B53D8013398
:10E81000DBB2012B13704ED122F014FF4BE01AB281
:10E82000002A48DD013BA4F8043244E0502353435E
:10E8300019F802E0142101FB0E333B44198ADFF87A
:10E84000108208B20028814F1CDD013989B288B2DC
:10E85000062A188209D1BEF1030F06D100B26FF06B
:10E86000400290FBF2F001441982022022F0B4FB36
:10E8700098F80030012B0AD8FB5C022B07D13DF041
:10E8800001FB04E09A7AD10644BF1A891A8298F8EB
:10E890000030012B0FD8FA5C6AB9B4F9F021062ACE
:10E8A00009D1502202FB03431A8A11B20029C4BFC6
:10E8B00002F1FF321A82664F3B78072B39D1634B46
:10E8C000D879B0BBB4F94032042B0BD1B4F8F03195
:10E8D000062B03D10323A4F8403203E05D4A1370F2
:10E8E00022F0BCFBB4F94032032B1CD1B4F9F03157
:10E8F000062B18D0574B01201B78A4F8F03194F860
:10E90000F23143F0020384F8F23122F0A7FB94F8CD
:10E910003A3043F0020384F83A3094F88A3043F0F6
:10E92000020384F88A3094F8063243F0020384F834
:10E9300006323B78062B1ED1444B987901281AD118
:10E94000454B1B7833B1B4F94032042B08BF00208B
:10E950003CF092FC3CF09EFB68B90220F5F77AFC93
:10E9600028B9B4F9F031022B05D0042B03D02020B4
:10E970000146F5F76BFC394B1B78012B0ED83B7821
:10E98000062B0BD1314B9B79012B07D1B4F8180220
:10E990003CF0D0FB962801D9314BD8822C4F3B78E4
:10E9A000052B0CD1294B5879032804D12A4B1B780D
:10E9B0002BB101F02FBB012801D122F02BFD3B78B8
:10E9C000062B2FD1214B9B7963BBB4F9F03163B98E
:10E9D000224B1A78224B1AB1DA8A83F8252004E0F8
:10E9E000D88A3CF0E7FB1F4B1880B4F9F031062BB6
:10E9F0000FD11A4BDFF868801B7823B198F82530C7
:10EA0000A8F8163005E0174B18883CF093FBA8F8DF
:10EA100016000023A4F8503194F8523143F0020359
:10EA200084F852313B78052B1ED1B4F9A031032B69
:10EA30002ADCB4F9B431102B26DD1023A4F8B4314C
:10EA400022E000BFEA450020C4BB0020E1630020B3
:10EA50000C62002084640020F1630020AE7000206E
:10EA6000CC61002072640020092B0DD1B4F9E03292
:10EA700053B9B4F80833053B9BB2012B04D80423E7
:10EA8000A4F8083323F020F83B78092B0FD1B4F910
:10EA90000823042A05D1B4F9F422092A01DDA4F8D7
:10EAA000F432AE4B5B7A022B01D123F00DF83B78A8
:10EAB000502000FB03400023C218917C143341F026
:10EAC0000201502B9174F7D14AE00C2B7FF622AD56
:10EAD000A34FA3F10D020C2000FB027191F80BC0B3
:10EAE00091F805E04CF0020C81F80BC0BEF1000F6C
:10EAF00002F032840EF1FF3E00FB027081F805E067
:10EB00000179023901290CD84179072904BF042170
:10EB100041710C2101FB02714879032804BF0120D7
:10EB200048710C2101FB02714879012808D18D48F8
:10EB300091F804E080F8273080F828E0042008717C
:10EB40000C2101FB02777A790B2A09D1854A92F8C8
:10EB50002710994216BF844B92F828301B783B71DE
:10EB6000824B7E4A1B785021D25C4B43142101FB1F
:10EB7000023121440F8A3BB2022B04DD002022F037
:10EB8000EBFF381A08827A4A1378052B40F09584F7
:10EB9000DFF8EC91754F012389F800303B78092BA1
:10EBA00000F0F781DFF8DC8140F2DC53A8F8003098
:10EBB000C246BAF800309BB2B3F57A7F40F20C81BE
:10EBC0000420F5F747FBC204F3D56A4A13781BB15A
:10EBD00083F0030302F0B9B93A78072A05D15F4AF6
:10EBE000D279022A08BF89F8003023F08FF8002874
:10EBF00042F0A08103460219B2F910205E4E0AB11C
:10EC00000133DBB25030B0F5A07FF4D1002B61D0DE
:10EC1000B6F800110AB20B2A01D00D2A02DDB6F9AE
:10EC2000100038B90A2A02D00C39012904D8B6F9E3
:10EC300060200AB1013BDBB2022B4BD93B784FF08D
:10EC4000500C0CFB03FC454A1421D25C01FB02C2B0
:10EC50003244917CA44441F002019174B6F8401210
:10EC600000220FFA81FE934228D1BCF9108042485D
:10EC7000B8F1000F22D09E4520D03A4A032BD78806
:10EC8000A0F8403297801789D78057895181178122
:10EC900010D1B0F8002113B20B2B01D00D2B02DDE7
:10ECA0000021A6F840120A2B02F09B830C3A012A9D
:10ECB00042F2978301203CF0DFFA07E00132042A98
:10ECC000D1D107233B70254B0022DA7122F09AF94B
:10ECD00002F030B996F8063243F0020386F80632A5
:10ECE000B6F8F031062B0FD0B4F9400201280BD151
:10ECF000B4F9102042B1B4F960202AB1B4F9B020BF
:10ED000012B9B4F900212AB1B6F84032002719B27D
:10ED100050200EE0194A13700423A4F840323CF04E
:10ED2000ABFA02F007B9B9420CD10137042F02F057
:10ED3000018100FB076EBEF910E00F4ABEF1000F23
:10ED4000F3D0F0E7042B1FD0064AD18891801189B7
:10ED5000D18051895381118122E000BFE1630020FD
:10ED60001C310020CC610020903000200C6200207B
:10ED7000EF6000200CCE0020883100208464002049
:10ED800032C50020D0600020BB4B1B78A2F8F031C8
:10ED900092F8F23143F0020382F8F2313CF0B6FC13
:10EDA000032FA6F8407210D1B4F8002113B20B2B38
:10EDB00001D00D2B02DD0021A6F840120A2B02F033
:10EDC00015830C3A012A42F2118322F01BF901202B
:10EDD0003CF052FA02F0AEB87D203BF07DF9012004
:10EDE00022F0E4FADFF8C09240F26A3BBAF8003051
:10EDF0009BB2002B00F08180B9F800309BB2B3F5D4
:10EE00007A7F7AD8B9F800309BB25B4502D80020EF
:10EE100022F0CCFA0420F5F71DFAC304E6D5974B8F
:10EE20001A78002A3ED0964E002183F8271083F8E6
:10EE300028103378032B16D8022A07D1032B05D1CB
:10EE40003A780E2A02D18F4A0F211170B4F9F021BD
:10EE50000133DBB2062A337020D1012B1ED0884B40
:10EE600004221A701AE0022A16D1B4234FF49D70BE
:10EE700040F28F117D2220F01FF83B780B3B012BD5
:10EE800002D8804B0A221A703B7803F0FD030D2B49
:10EE900002D17C4B0E221A700023337022F084F9C9
:10EEA00002F048B87849087898B901220A70397890
:10EEB000092903D05A73754B50221A80744B89204C
:10EEC0000093D82140F2054200231DF0EBF802F038
:10EED00031B80A703A78092A04D002225A736B4B6F
:10EEE00050221A806B4B89200093D82140F20542B2
:10EEF00000231DF0D7F802F01DB83C203BF0ECF8E1
:10EF0000B8F8000080B2002843D1634A634B1178FF
:10EF100011F0010F21D141F001011170B4F8F0217D
:10EF2000023A92B2022A0AD8B4F90422092A06DC6B
:10EF30005B4A12781AB907223A700322DA713978DB
:10EF400014205A5C5023594300FB02122244917C46
:10EF500041F002019174072117E021F001011170C5
:10EF60003A78072A03D1D979032908BFD8714B4BC6
:10EF7000985C502303FB02F1142202FB001222448E
:10EF8000917C41F00201917408213C4A51733F4A3F
:10EF900013803B78DFF8EC90092B40F08E82414BD8
:10EFA0000021009340F20A520B46E6201DF07AF849
:10EFB00099F80030502202FB0342B2F91020DFF82A
:10EFC000EC8012B1DFF8E8801BE1DFF8D09019F88F
:10EFD0000330032B01D103F05FF93B78502202FB91
:10EFE0000381B1F93810072900F26482DFE811F0DB
:10EFF00008000F0027002E006200610261028100FC
:10F0000002FB038393F8240039F01CF824E002FB90
:10F01000038393F8240038F0D1FA1A4B1F4A1B7867
:10F020000646D25C032A05D0502202FB03439A8C89
:10F0300001329A844FF4617002F042FC3AE202FB22
:10F04000038393F8240039F017F905E002FB0383EA
:10F0500093F8240039F060FA0A4B104A1B780646F0
:10F06000D25C032A00F02682502202FB03439A8CD2
:10F0700001329A841EE200BF84640020CC6100202B
:10F08000903000200C620020DECD0020DC600020EB
:10F090005F500108615001081DBD0020E1630020A0
:10F0A0009C700020F84D0108D060002088310020BD
:10F0B000FF45002019F80330A94F032B4FF0000340
:10F0C0000ED101223A70A748A74A195C995401331E
:10F0D000082BFAD1A54B01221A7022F0CBFC01E0DB
:10F0E000A24A1370002022F075FC002306463B70F4
:10F0F000E0E138F0E1F90646DCE19D4B5B7A032B59
:10F100000CD19C4BB4F91C130D2000FB01300023E3
:10F11000C15C03F808100133082BF9D1502303FB1D
:10F120000243B3F93820012A70D0002692485022B9
:10F13000037802FB0343B3F93830022B6CD08E48BE
:10F1400050220378DFF83CA202FB0343B3F93820D6
:10F15000002A40F03081894B197811B11A703CF0C7
:10F16000AFFF854950220B7802FB03A393F82400DC
:10F1700038F0A4F8804A834613780646092B40F0FD
:10F180009E807B4A527A032A40F09980002800F042
:10F190008180B4F81C331AB20D2A00F38580013344
:10F1A000A4F81C33764838F041FC764B0D21B3F8B7
:10F1B0001C3370481AB2514300EB010E415C002928
:10F1C00077D071498E4574D0704B00221A709A46E0
:10F1D000BBF1000F40F0E880584638F0DDFB9AF8AC
:10F1E00000306A4E002BFAD000203AF087FD9620BE
:10F1F00002F066FB22F086FA1FF0F4FE3378052B4E
:10F2000064D199F80020092A88D176E793F8240080
:10F2100037F0E9FF064689E7584B1A781AB1002201
:10F220001A703CF04DFF54494FF0500A0B780AFB1E
:10F23000034393F824003AF0ABFB4F4A0646137899
:10F240004B4AD25C032A05D00AFB03439A8C013255
:10F250009A840CE0B4F81C331AB20D2A03DC013393
:10F26000A4F81C3303E04A4B1A8801321A80494A39
:10F27000B4F904321268142101FB0323DA89464BE6
:10F280001A8023F0B3FD00283FF459AF434B00220E
:10F290001A7054E7424A034613F8081002F8131094
:10F2A0000133082BF8D174E7394B1A8801321A80E0
:10F2B00078E7002A88DD013BA4F81C3384E750225C
:10F2C00002FB03A39A8C01329A847DE73378042BE6
:10F2D0003DD199F80030092B2ED1254A527A032AC4
:10F2E0002AD1B4F81C2313B2002B1DDD92B2531E99
:10F2F0009BB2204899B20D2606FB0306A4F81C1306
:10F30000002313F808C016F803E0D8B2F44503D17F
:10F310000133082BF5D102E007287FF472AF19B151
:10F32000023AA4F81C236CE7194B1A88002A3FF410
:10F3300068AF013A1A8064E7502202FB03439A8CBB
:10F3400011B20129CCBF023A00229A8459E7154B29
:10F350001B78002B01F0EE851FF0C8FD01F0EABD1F
:10F36000B55D0020FF450020583000206E6400206D
:10F37000E16300204A5C00200C620020EF63002063
:10F380006130002088310020684F0108EF600020C4
:10F390000E5D002024C50020743600201EBD002014
:10F3A000A5350020CC610020A04B1B781BB121F0BB
:10F3B0007FFF25F003FE3B78502202FB0343B3F9A5
:10F3C0003830DFF88C82042B32D1B4F81CA322F041
:10F3D000B3FA974B09221A70964B06461B78814662
:10F3E00083B15FFA8AFA944A9448A4F81CA30023D4
:10F3F000195C99540133082BFAD1914B03225A72AC
:10F4000022F038FB98F8E23243F0020388F8E23247
:10F4100098F8F63243F0020388F8F63298F80A3387
:10F4200043F0020388F80A33B9F1000F01F0828536
:10F430003B78502202FB0383B3F93820052A06D11A
:10F4400093F8240038F05AF906463CF07BFA3B78F2
:10F45000502202FB0383B3F93820062A0BD193F81C
:10F46000240038F061FBB4F9A0310646082B02D124
:10F47000744B01221A703A78502303FB0283B3F9CC
:10F480003830032B03D0072B08BFC82600E0C8265E
:10F490006B498A5C032A0DD1022B0BDC56B96A4AF0
:10F4A00066483346195C02F813100133082BF9D172
:10F4B00000E0C826F0B238F06FFA644E33780A2BB9
:10F4C00040F0E986B4F9F031614E594F1BB123F099
:10F4D0008DFC68B906E023F089FC0028F7D13B7861
:10F4E000062B0AD0B6F900315A490B2B0BDC43E04E
:10F4F000594B1B78002BF2D1F4E7514B9B79022B2F
:10F50000F0D101F0DABE3B78032B35D14C4BDB78E0
:10F51000012B31D10B78C3B1504B1A88022A01D18B
:10F5200005220DE0142A01D1322209E0C82A02D1B5
:10F530004FF4FA7204E040F2F1318A4201D85200ED
:10F540001A800122464BFEF75DBF464B1B789BB1EC
:10F55000B4F830331AB2FE2ADCBF0133A4F83033DA
:10F56000B6F830830FFA88F3FC2B05DC012022F07B
:10F57000F3FA4044A4F830030B783BB13B78062BF8
:10F5800004D12F4B9B79012B01F097863B78062BFA
:10F5900010D12B4A92796AB9334A127852B1334A60
:10F5A00012783AB1324B1A78002A41F0868601224D
:10F5B000FEF728BF2F4A1278CAB1062B17D1204B6D
:10F5C0009B79012B13D13BF065FD80B12A4B1B7851
:10F5D0006BB12A4B1B7853B1294B1A7851B20029D1
:10F5E00001DD013A1A703CF091F801F066BE254B3E
:10F5F0001B78012B4AD13B78012B64D9062B0AD109
:10F600000F4B9B79012B06D11B4B1B781BB11B4B5E
:10F610001B78002B57D11C4B1A78352A9CBF01321E
:10F620001A703CF02FFC01F085BC00BFCC610020BB
:10F630000C6200206E64002058300020FF4500203E
:10F64000E16300202DC50020A5350020EF600020DB
:10F6500088310020EF630020AE7000204AC50020F2
:10F6600041C5002040C5002022C50020FE630020C7
:10F67000EE360020FC630020C0B00020C1B00020A6
:10F68000FD6300200CCE00205E360020022B1AD134
:10F690003B78012B17D9062B09D1A64B9B79012B5F
:10F6A00005D1A54B1B7813B1A44B1B785BB9A44BB8
:10F6B00040F2E6311A8810B2884201F33B840132ED
:10F6C0001A8001F037BC012024F0D6FB78B1B6F8DF
:10F6D0001C331AB20D2A04DC0133A4F81C3301F0E8
:10F6E00029BC984B1A8801321A8001F023BC24F0FF
:10F6F000C3FB00283ED0944B1A78A2F1410118298F
:10F7000001D801322AE0A2F13101082901D8013AD9
:10F7100024E0292A1FD00BD8252A18D002D8202A65
:10F7200013D01CE0262A14D0282A18D1292215E04B
:10F73000302A12D003D82D2A11D15F220EE03F2AA1
:10F7400003D05F2A0BD1392208E0412206E02622AD
:10F7500004E0282202E02D2200E020221A707B4AD9
:10F76000197812787A4B002003F8121024F09AFBD3
:10F7700001F0E0BB3B78062B1FD16E4B93F806805F
:10F78000B8F1010F19D123F031FBB0B1714B1B78E7
:10F790009BB1012B03D1704B1A78012A19E1022B7E
:10F7A00041F08B856D4B1A78002A41F0868583F8ED
:10F7B00000803BF0FBFB01F080BDB6F9F031062B79
:10F7C00015D13B783BB95B4B1B78032B0FD1644BB6
:10F7D0001A78D62A08E0012B09D1564B5B78032B07
:10F7E00005D1604B1A78A92A9CBF02321A700320F7
:10F7F00021F0F2FB3B78012B05D84E4AD05C012862
:10F8000001D123F07FFA3B78052B51D1494A527937
:10F81000012A4DD1B6F9A011082949D1524B1B78C4
:10F8200073BB524B524A1B7813B31388B3F5487F0E
:10F8300006D2232B8CBF143B1023138001F07ABB1C
:10F84000B3F52F6F03D2323B138001F073BB43F249
:10F85000A9218B4203D8643B138001F06BBB43F6B4
:10F8600079218B4294BF323B143B138001F062BB81
:10F870001388102B41F25E83013B138001F05ABBC9
:10F88000012B08D13B4B1A78052A01F25383013230
:10F890001A7001F04FBB022B03D1374B1A7001F0E5
:10F8A00049BB032B41F04683344B1A7001F042BB35
:10F8B000334A127812B30A2B20D11E4B9B7A012BAC
:10F8C00076D8B38C033B9BB2012B71D8B4F83023AC
:10F8D000B4F9281313B2994241F32C83B4F844339A
:10F8E000B4F93C0319B2884241F324830132013355
:10F8F000A4F83023A4F8443301F01CBB0B2B49D1EE
:10F90000204B1B7843B1204B1A78002A01F0128358
:10F91000013A1A7001F00EBB1C4B1B78002B47D02C
:10F920001B4B1A78022A01F2058301321A7001F08A
:10F9300001BB00BFE1630020C0B00020C1B00020C7
:10F94000F03600200E5D0020553600200A640020AD
:10F95000A5350020FF63002000640020C0BB00200C
:10F96000DE450020DF4500200864002005640020FB
:10F9700056360020A43500200664002007640020CD
:10F980000964002004640020E54500200264002092
:10F99000036400200C2B0BD1A54B1B7843B1A54B66
:10F9A0001A78002A01F0C682013A1A7001F0C2BA30
:10F9B0001FF090FD58B3397849BB9F4B1B78012B42
:10F9C00025D19E4B1B7813B3012B05D19C4B1A7884
:10F9D000022A01F2728431E0022B03D1994B197093
:10F9E00001F06BBC032B41F06884974B1A8810B26E
:10F9F000C61C02D1198001F060BC0AB9022203E0E2
:10FA0000BF2801F35A8401321A8001F056BC1FF05E
:10FA100029FDB0B13B78A3B9874B1B78012B10D1DE
:10FA20008A4B1B78012B0CD1894B1A78122A01F2D0
:10FA30004484092A02D10F22FEF7E4BC0132FEF70A
:10FA4000E1BC3B78052B52D17B4A5279012A4ED139
:10FA5000804A1278012A4AD1B6F9A021042A02DD8F
:10FA6000072A44D138E07C4B1B785A1E012A0BD858
:10FA70007A4B1A78082A9CBF01321A7023F054F886
:10FA8000022023F03FF91DE0032B25D1734B1B7897
:10FA9000012B03D8B4F9B431052B07DCB6F9B43126
:10FAA0000D2B03DC012021F0A1FD09E06C4B6D4919
:10FAB0001A7809789142F5D91A780132D2B21A70BF
:10FAC00023F032F8B6F94032042B0CBF002001209D
:10FAD0003BF0D2FB01F0F1BB634B1A7851B26331BA
:10FAE00001DB013A1A7022F049FF01F0E6BBDFF8B2
:10FAF00088B19BF8232042B1072B06D14E4BDA790F
:10FB0000022A05D10022DA7102E00C2B00F2728386
:10FB10004FF0000A4FF0500897F80090D1452BD1D4
:10FB2000454810F80A203ABBB6F94022524520D188
:10FB3000BAF1030F18D8DFE80AF002020B1108FB34
:10FB40000262B2F91020042A0ED121F033FA0BE040
:10FB500008FB0262B2F91020012AF5E708FB0262F5
:10FB6000B2F91020092AEFE721F04CFA01203BF00E
:10FB700083FB484621F0F6FB0AF1010ABAF1040FB3
:10FB8000CAD13978072979D12B4BDB79022B31D1B6
:10FB9000364B1B7833B19BF8240000280CBF0320A0
:10FBA000022000E00120B6F94012314B00220F463E
:10FBB000824280F2AE82042F10D11E880FFA86FE98
:10FBC000BEF1C70FDCBF01361E809E880FFA86FE8D
:10FBD000BEF1C70F0CDC01369E8009E033F82160CE
:10FBE0000FFA86FEBEF1C70FDCBF013623F8216095
:10FBF0000132DDE7032B41D11E4B1B78022B40F075
:10FC00008882B6F90432092B00F38382B4F87C327F
:10FC10001AB2B2F5526FBCBF1E33A4F87C3221F089
:10FC200093F91E23A6F878028BF80C3071E200BF1E
:10FC300001640020F0600020E1630020F045002016
:10FC4000163D00201D3D002030300020F1450020F1
:10FC50004C300020F6630020F1630020983500202E
:10FC6000683000208C300020F4630020B860002051
:10FC700020300020AE700020CC610020A1F10B03E9
:10FC8000012B0CD8502303FB0166B38CB6F91C1072
:10FC90001AB2914240F33D820133B38439E206291E
:10FCA000DFF8AC826ED198F80630022B40F0D3809A
:10FCB0003FF008F996F82E32A14943F0020386F886
:10FCC0002E32CB8A9F4A962B1BD8127882B11D2BDD
:10FCD0000AD83A78502318F802105A43142303FB29
:10FCE000012323441A8A3BE00433CB8201F022B97A
:10FCF0003A78502318F802105A43142303FB0123C7
:10FD000027E013781422EBB18F4B5020197818F8A4
:10FD10000130414302FB031323441A8AB3F908104C
:10FD200010B2A1F11E07B84204DA8849097821B956
:10FD30001E3216E08F1FB84201DA063211E0884207
:10FD400010DA0DE03978502018F80130414302FBF9
:10FD5000031323441A8AB3F9080011B2884201DD63
:10FD600001321A82784B7A4A1B785021D25C4B437D
:10FD7000142101FB02331E44308A3BF0DBF9704B47
:10FD8000D882C6E10A294AD198F80A30012B62D8F4
:10FD90009BF80010142202FB0362E9B1B2F83013A1
:10FDA000B2F928030FB25F388742BCBF0131A2F815
:10FDB0003013142202FB0366B6F83013B6F9283369
:10FDC0000AB2613B9A4280F2A481002021F0C4FE75
:10FDD0000844A6F830039CE1B2F83013B2F92803C6
:10FDE0000FB209388742BCBF0131A2F83013142189
:10FDF00001FB0366B6F92833B6F930230B3B9A4270
:10FE000080F28781002021F0A7FE98F80A6001FBAC
:10FE10000641B1F830331844A1F8300379E10529DF
:10FE200019D198F80530022B15D14A4A137823B11D
:10FE3000002021F0D1FA01F040BAB6F8C83147F2FB
:10FE4000D62219B29142D4BF03F5967347F22F53CD
:10FE5000A4F8C8315DE150234B4318F80170142217
:10FE600002FB07331E44B6F81080B6F908300FFACB
:10FE700088F2023B9A4204DA002021F06DFE4044F1
:10FE8000308291B98FB9238A53B9042022F03AFF06
:10FE90002B4B01229A701A7B42F020021A7304E065
:10FEA000042B02D1052022F02DFF274F284E3B784E
:10FEB000012B14D1737893B9B4F8603053B904208E
:10FEC00022F020FF1E4B02229A701A7B42F0400261
:10FED0001A7304E0042B02D1052022F013FFB4F8BA
:10FEE000F011042911D13B78062B0ED1B379032BE5
:10FEF0000BD1194A1378FB2B00F281804120591C49
:10FF0000B3FBF0F30B44137079E03A78062A27D15B
:10FF1000B379012B24D1B4F8043243B929B90F4B7A
:10FF20001A7812B1013A1A7069E0012305E0B4F9B8
:10FF3000FC111AB2914262DD0133A4F804325EE092
:10FF4000CC610020B86000200C620020EC60002032
:10FF5000E1630020F5630020EA450020C4BB0020D7
:10FF600050235343B15C142000FB01332344188A0F
:10FF7000B3F9087006B2B74203F1080EA54FA64EBA
:10FF80001CDD013080B21FFA80FE062AA3F810E0C3
:10FF900008D1032906D10FFA8EFE41229EFBF2FE04
:10FFA00070441882022021F017F83B78012B0BD8FF
:10FFB000F35C022B08D13BF065FF05E09EF80220C0
:10FFC000D10644BF00221A823B78012B17D8F25C7D
:10FFD000AAB9B4F9F021062A11D1502000FB03423E
:10FFE000118A0EB2002EC4BF013111828B4A00FB70
:10FFF0000323B3F91020042AC4BF00221A82854EBD
:020000040801F1
:100000003378052B14D1844B5B79032B0BD1844BB4
:100010001B786BB1834B1B78002B01F04E813AF0BB
:100020006DFE01F04AB9012B02D1002021F0F2F956
:100030003378072B37D1784BD879A0BBB4F940324D
:10004000042B0AD1B4F8F031062B02D1A4F84002F7
:1000500003E0754A137021F001F8B4F94032E3B9B6
:10006000B4F9F031062B18D06F4B01201B78A4F89F
:10007000F03194F8F23143F0020384F8F23120F0C9
:10008000EDFF94F83A3043F0020384F83A3094F8E4
:100090008A3043F0020384F88A3094F8063243F041
:1000A000020384F806323378062B1ED15A4B987916
:1000B00001281AD15A4B1B7833B1B4F94032042BC2
:1000C00008BF00203BF0D8F83AF0E4FF68B90220FE
:1000D000F4F7C0F828B9B4F9F031022B05D0042B9D
:1000E00003D020200146F4F7B1F8504B1B78012BC8
:1000F0000FD83378062B0CD1474B9B79012B08D1B5
:100100004B4EF38A962B04D9B4F818023BF012F840
:10011000F082404E3378062B2CD13F4B9B794BBB62
:10012000B4F9F03163B9424B93F82A201AB1DA8A54
:1001300083F8252004E0D88A3BF03CF83D4B18803A
:10014000B4F9F031012B0CD1384B394F1B781BB16E
:1001500097F82530FB8204E0364B18883AF0EAFF26
:10016000F8820023A4F8503194F8523143F002038E
:1001700084F852313378052B0BD1B4F9A031032B1D
:1001800017DCB4F9B431112B13DD1123A4F8B43109
:100190000FE0092B0DD1B4F9E03253B9B4F80833AC
:1001A000053B9BB2012B04D80723A4F8083321F0A8
:1001B0008BFC3378092B0FD1B4F90823042A05D11D
:1001C000B4F9F422092A01DDA4F8F432124B5B7A67
:1001D000022B01D121F078FC3378502000FB034042
:1001E0000023C218917C143341F00201502B91740A
:1001F000F7D150E01048A3F10D010C2202FB0102DF
:10020000D77A567947F002070A2ED77216D80136E8
:1002100056711CE00C620020E16300208831002050
:10022000F1630020EBCD002084640020AE7000203C
:10023000CC610020726400201C3100200026567121
:1002400016798BF827308BF82860042616710C225B
:1002500002FB01025679022E09D19BF827609E42CB
:100260000BBF9F4B9F4B93F828301B7813710C23C7
:1002700003FB01031A79023A012A0CD85A79022A9F
:1002800004BF04225A710C2303FB01004379052BA0
:1002900004BF08234371944E3378072B40F0E0806D
:1002A000924F3B780C2B00F29E8050225A43DFF88D
:1002B0006C82002018F80310142303FB012323444D
:1002C0009A7C8B4E42F002029A7423F0D5FD78B1ED
:1002D000884A137863B1013BDBB21370864A03206E
:1002E00012F81320854B1A7023F0DCFD00F022BEBB
:1002F000834B1B78A3B1834B1B788BB9B6F90021D4
:100300000B2A0DDD3A78032A0AD198F80320012A36
:1003100006D17D4A022013703BF00AFF00F00ABEAE
:100320003B78724A092B11D198F80930032B1AD166
:10033000B6F9F031062B41F08380B4F9E032012B9D
:1003400041F07E80714A137001F07AB80A2B19D1FE
:10035000082313702BE023F083FD20B14046414673
:1003600003221DF0FBFB5E4B1B78012B05D0022BFB
:1003700005D15C4B1B78042B01D10C2300E00A2330
:100380003B7014E056490978002901F0348003B12C
:10039000013B13703B78032B01F24A80502202FB91
:1003A000036393F84E2042F0020283F84E2020F0BF
:1003B0003FFE3B78092B53D1B6F90823042A05D117
:1003C000B4F9F422092AC8BFA4F8F432484B03F167
:1003D000500293F8E212143341F0020183F8CE1276
:1003E0009342F6D13CE03E4A1278012A19D1484A9C
:1003F000A3F10D010C2000FB01210D2B0CBF1523D7
:1004000003F1FF33C87A3B703B7840F00200C872BA
:100410000D3B0C2101FB0323DA7A42F00102DA7270
:100420001EE0022A1AD12F4A1278042A02D00E2B7B
:1004300012D104E00D2B04D1354B0022DA721023C7
:100440000DE00F2B08D1324B93F8232042F003022A
:1004500083F823200D2302E0013B00E00A233B70D8
:10046000214F3B783E46042B40F02B84294B2A4FEA
:1004700001221A7040F2DC533B80B946B9F80030D3
:100480009BB2B3F57A7F40F260820420F3F7E2FE7C
:100490004206F3D5154E3378032B13D11F4BDB786F
:1004A000012B0FD1B4F900310B2B0BDD144B1B7852
:1004B00043B91B4B1A78D2F1010238BF00221A70DF
:1004C00000F038BD002023F0D7FC58B3094B0A4A8E
:1004D0001978202302F81130084A137000F02ABD61
:1004E000CC61002090300020EF6000200C620020E2
:1004F000883100200A640020A535002055360020F0
:10050000EF63002033C5002041C5002048300020A3
:100510001C31002032C50020D0600020E1630020A3
:1005200040C500203378092B40F08480B4F90833AB
:10053000022B40F0EE80B4F9E032012B40F0E9806C
:10054000B4F95031002B40F3E480AB4B5B7A032BC2
:100550004ED1B4F81C331AB2002A1CDD9BB25F1EC8
:10056000A649BFB24FF00D0EBAB20EFB0711A44F51
:10057000A4F81C2310F807C011F800E0F44503D1DB
:1005800001300828F6D101E0072809D11AB1023B51
:10059000A4F81C3304E09B4B1A880AB1013A1A8074
:1005A000994837F043FAB4F91C23944B0D2000FB13
:1005B0000230934A0023C15C99540133082BFAD1CD
:1005C0003378502202FB034393F8240039F0E0F91A
:1005D00037F0E2F9B4F81C331AB20D2A03DC013308
:1005E000A4F81C331CE0874B1A8801321A8017E0EC
:1005F000B4F8F4321AB2012AC6BF023BA4F8F432AE
:10060000A4F8F402B4F8F402431CA4F8F432C0B223
:1006100039F0BEF994F8F63243F0020384F8F6326A
:1006200022F0E4FB002800F08584784B00221A7049
:1006300000F080BC0B2B0BD1754B1870754B1A78E2
:100640001AB901221A7000F075BC187000F072BC63
:10065000052B5ED1684B5B79012B5AD1B4F9A021EF
:10066000082A08D16C4B1A78022A9ABF01321A70F4
:10067000187000F05FBC694B1978012949D1042A30
:1006800047DC674E33784BB9664B042A1878664BC3
:10069000317018701AD13BF055F917E0012B05D1D4
:1006A000614B1A785F4B1A7002230EE0022B01D1C6
:1006B00003230AE0032B01D1042306E0042B05D118
:1006C000584B1A78584B1A700023337022F02CFACA
:1006D000564B03F1500293F8A211143341F002017A
:1006E00083F88E119342F6D1B4F94032042B0CBF3B
:1006F000002001203AF0C0FD3378022B40F01A842C
:10070000B4F9A031042B40F015843BF01BF900F044
:1007100011BC1EF0DFFE78B13378012B0CD8364ABD
:10072000D15C012908D1424B1A782AB1022A9ABF1A
:1007300001321A701970FDE3B4F900310B2B0DD1A1
:100740003378032B0AD13B4B1A78012A94BF01322C
:1007500000221A701B78A4F81431EBE33378092BCC
:1007600000F0E883B4F8F031062B00F0E383324F59
:1007700097F82420B2B9012287F824203A7B42F06E
:1007800060023A73002B00F0BF80F88A2B4E962847
:1007900001D93AF00FFD97F825303080FB82022214
:1007A000274B1AE0DFF8A8E0264B9EF800202649E8
:1007B00072B901208EF8000008701A703AF0A6FF96
:1007C0003AF068FC002800F09F803AF0EFFB9BE0D5
:1007D0000878012803D100220A701A7094E0012AD7
:1007E00038D1B8BB19490978A1B3197891BB1A70EF
:1007F0003AF08CFF88E000BFE16300204A5C0020F3
:10080000FF4500200E5D0020613000201EBD00204D
:10081000026400200464002008640020F6630020C5
:10082000F1630020F46300208664002088310020FA
:10083000F0450020ED450020CC61002072640020CE
:1008400054360020C1B00020B4700020C0B0002099
:10085000D6450020B4F95031002B02DDBA4B0122FD
:100860001A70BA4A00231370B94A87F824301370FB
:10087000B84A94F8EC00137094F83C11B64BB74AA0
:100880009870D97004339342FAD1B54F3B7B43F053
:1008900060033B7322F0AAFA40B1B24B002002225F
:1008A000A4F818021A703AF045FCF8823AF02EFFCC
:1008B000B4F94032042B0CBF002001203AF0DCFCDC
:1008C000B4F9F03163B1FB8ADFF8948287F8253000
:1008D000A54B1888962801D93AF02CFCA8F81600E8
:1008E0003378A24A072B04D1D179032904BF002110
:1008F000D171D15C50225A43142303FB01232344BA
:100900009A7C42F002029A74032022F0FBF91EF056
:1009100069FBB4F92430022B40F30C83B4F9503155
:10092000002B40F00783B4F9F031022B02D0042BE6
:1009300040F000830220F3F78DFC002840F0FA829B
:10094000874B012283F82F20F4E27D2039F0C4FB8D
:10095000012020F02BFDDFF84C8240F26A3AB9F812
:1009600000309BB2002B00F06881B8F800309BB2D9
:10097000B3F57A7F00F26181B8F800309BB253453D
:1009800002D8002020F012FD0420F3F763FC430698
:10099000E5D5002023F070FA50B1754A00232021DC
:1009A00099540233102BFBD1724B20221A70C1E2F2
:1009B000714F6E4A3B78092B40F08780517A0329AA
:1009C00040F09880B4F9E012012940F09380B4F926
:1009D0001C236A4B0D2101FB023208AF135CC35587
:1009E00001300D28FAD100233F21FA5C272A07D0D5
:1009F000402A05D0A2F12100032801D97C2A00D980
:100A0000F9540133082BF0D15D4B002100935C2099
:100A10000B4640F205421BF045FB00210B46D4205B
:100A200040F2054200971BF03DFB544BB4F91C23E8
:100A30000D2000FB023008A90023C25C5A54013388
:100A4000082BFAD14F4B1A788DF828205A789B78CA
:100A50008DF829208DF82A3000238DF82B30337043
:100A60003378002BFCD0484B1B78042B12D147481D
:100A700036F00AFF064658B9454B1A880AB1013AC2
:100A80001A8023F0EDF918B1354B012283F82E209E
:100A9000304600E0C82036F07FFFC82000F010FF8D
:100AA0001EF0A0FA94F8E23243F0020384F8E23236
:100AB00094F8F63243F0020384F8F63294F80A33DD
:100AC00043F0020384F80A3334E2052B12D1517942
:100AD00001290FD12F49097801290BD12E49087816
:100AE000032802D102230B7024E2042802D103233D
:100AF0000B701FE250215943D05C142202FB0012FC
:100B00002244917C164E41F0020191743278002A01
:100B10004AD10B3B0A2B98BF3A703B78092B00F067
:100B200009821E4B1E4A597A31B901215972032399
:100B3000737350231380FDE10021597204237373F2
:100B400050231380F6E100BF1E3D0020D645002053
:100B5000B4700020C1B00020686A00209C700020A2
:100B6000CC610020E936002072640020E16300209F
:100B7000A5350020553600200C6200204A5C00207C
:100B80006350010861300020EF600020084600201B
:100B90000E5D0020F6630020F163002090300020FD
:100BA000DC600020D06000200C2B22D823F058F904
:100BB00018B9B4F9F031062B0FD1012023F05CF9FC
:100BC00058B10020014603221CF0C8FFB4F9F031EF
:100BD000062B02D1A64B01221A703A78A54B86F853
:100BE0003020A54A1278042A0CBF0D220E221A705A
:100BF000A0E1012A02D10020092103E0022A03D149
:100C00000020042120F042FA96F83030092B3B7086
:100C100040F0908194F8E23243F0020384F8E2322B
:100C200094F8F63243F0020384F8F63294F80A336B
:100C300043F0020384F80A337CE13C2039F04CFA9B
:100C40003B889BB2002B3CD18C4B8A4F1A7812F018
:100C5000040F1DD142F00402012009211A7020F076
:100C600015FA3B78864F092B04D009237B73854BFB
:100C700050221A80844B91200093D821002340F207
:100C800005421BF00FFA3B7B43F060033B7318E017
:100C900022F00402012009211A7020F0F7F93B78B4
:100CA000092B05D0764B0A225A73764B50221A80B4
:100CB000764B91200093D82140F2054200231BF08F
:100CC000F1F93378082B40F035816A4A13780C2B00
:100CD00000F2F280502159436D4E6E4FF05C1423A8
:100CE00003FB00132344997C002041F00201997416
:100CF000039223F0C1F8039A78B1674B01201A7868
:100D0000062A9CBF01321A701A78644B13F812201D
:100D1000634B1A7023F0C6F80CE1624B1B788BB161
:100D2000614B1B7873B9B4F900110B290ADD1278F5
:100D3000032A07D1F078012804D15C4A13703BF0F4
:100D4000F7F9F7E04B480278092A20D1737A032B90
:100D50005DD1574836F06AFE00B10138B7F91C334F
:100D6000834202DAA4F81C03E4E00E2840F0E2809B
:100D7000504E4F48378807F10E03338036F056FE49
:100D8000013F384430804A4836F050FED2E03C4BB8
:100D90001B7823B90A2A14D10923037037E00C2ADF
:100DA00001D1092216E0022B0DD13349097804291B
:100DB00009D0092AF0D8511CC9B2092901700AD1F9
:100DC00007E00C2AEDD0511CC9B2092901D00170ED
:100DD00001E0023202700278032A08D8502101FB98
:100DE000027191F84EE04EF0020E81F84EE073B9B8
:100DF000082A05D1327A022A09D1254A137206E05F
:100E00000A2A04D1B27A022A04BF214A93720378D3
:100E1000042B02D1174B05221A7020F009F9037830
:100E2000092B40F08780737A032B09D1B7F9E032A0
:100E300033B9194B1A78194B13F81220184B1A7042
:100E4000B7F90833042B06D1B4F9F432092BC4BF27
:100E50000923A4F8F4320F4B03F1500293F8E21285
:100E6000143341F0020183F8CE129342F6D161E0CF
:100E7000483000200C620020903000201DBD002072
:100E8000CC610020DC60002073500108AB530108E6
:100E9000E1630020883100200A640020A53500208D
:100EA00055360020EF63002033C5002041C50020E7
:100EB000613000200E5D0020AA490978012919D16E
:100EC000152BA949A3F10D004FF00C060CBF0D2303
:100ED000013306FB0010137013780C220D3BC67A09
:100EE00002FB031346F00206C672DA7A42F00102F0
:100EF000DA721FE002291DD19C490978042905D026
:100F0000102B0CBF0E230133137013E00D2B05D1F2
:100F1000954B0021D9720F2313700BE0102B07D1D2
:100F20000D231370904BDA7A42F00302DA7201E07B
:100F3000013313708E480378092B07D003780A2BEE
:100F400004D08C4A002313708B4A1370B4F900311B
:100F50008A4E0B2B02D08A4B19221A8020F0A8F857
:100F6000338ADBB9B4F96020C2B9B4F9B010A9B9B9
:100F7000B4F8002110B2092810DD0D28A2F10C02EE
:100F8000C8BFA4F84012012A9CBF0123A6F8403232
:100F900020F038F801203AF06FF931E0B6F940223C
:100FA000042A2DD10222A4F8F02194F8F22142F073
:100FB000020284F8F2210BB901232382B6F96030D2
:100FC00013B90123A4F860300023A6F8B030A6F8C6
:100FD00000316A4B9A7C6B4942F002029A7450339A
:100FE0008B42F7D196F83A3043F0020386F83A3054
:100FF00096F88A3043F0020386F88A3020F002F82F
:10100000614F3B78052B09D1604B5B79032B05D1F0
:1010100039F074FE2B7B43F008032B735C4B1B7879
:10102000022B00F02C813B78062B14D1574A927981
:101030003AB94F4F3A78092A45D03A780A2A0AD164
:1010400041E0012A07D14A480278092A16D0484AC5
:1010500012780A2A12D02A7B072B42F004022A7344
:1010600011D1B6F94022032A04DC414A117809293A
:1010700012D117E0454AD279012AF6D92A7B42F0EB
:1010800010022A730EE0032BEFD90A2BF6D1B6F922
:101090004022032AF2DCE8E711780A2902D012780C
:1010A000052AEBD1032B0AD8384AD35C022B06D889
:1010B0002F490B78092B06D00B780A2B03D02B7BFA
:1010C00043F002032B73304E3378032B2DD82F4A75
:1010D000D35C032B29D1264A1378092B02D013782D
:1010E0000A2B22D1002094F83810B4F94C2039F0A2
:1010F00019FA012094F88810B4F99C2039F012FAFA
:10110000B4F9F031062B10D0B4F800310A3B9BB291
:10111000012B0AD91F4B1B783BB11F4B6E221A8043
:101120001E4B01221A701EF0F3F93378062B5AD1A8
:10113000164B9B79022B56D10D4F3B78092B02D0D1
:101140003B780A2B4FD1B4F95031002B3AD1B4F986
:10115000F031022B24D0042B22D0B4F90432072B17
:1011600023DD2FE0CC6100201C31002090300020D6
:10117000EF6000200CCE0020FC63002088310020AE
:101180004A300020C83200200C620020E1630020B9
:10119000543600206E640020E66000202CC500203C
:1011A0000220F3F757F80028D7D1E88A3AF002F87E
:1011B0000123A4F85031A4F818023BF041FB0023AE
:1011C000A4F8503121F012FE68B1AA4B1A7852B936
:1011D000A94B1988B4F9183203F27B139942A74B33
:1011E000D8BF02221A703378062B15D1B4F9F0312A
:1011F000022B01D0042B0FD1A14B9B79012B0BD1DA
:10120000A0480378092B02D003780A2B04D19E4B07
:1012100001221A703BF09AFAB4F9F031042B11D183
:10122000012039F0DBFC994B01211970914B1E789C
:1012300046B9B4F904320A2B04DC0620F3F706F8A9
:101240008D4B1E80B4F95031B3B9914B1A884AF6D0
:1012500055239A4210D136F093FDB4F8180239F0B4
:1012600069FFE8823AF052FA21F0C0FD10B902207D
:101270003AF002F83AF006FE864B01221A70864BCD
:101280001B78052B06D17F490B78092B0ED00B78E4
:101290000A2B0BD0B4F9A031082B02D17F4B1B785D
:1012A0005BB92B7B43F008032B7306E0744B5B792F
:1012B000012B02D1022021F025FD774E3378052B3A
:1012C0000BD16F4B5B7943B96E4A1378092B02D06F
:1012D00013780A2B01D13AF035FB39F0DBFE95F893
:1012E000313083421BD039F0D5FE70B13378092BF1
:1012F00008D0502202FB0343B3F93830022B01D04F
:1013000039F054FE664BFF221A703AF0FFF9B4F937
:101310004032042B0CBF0020012039F0ADFF39F022
:10132000B9FE238A574E1AB2002AC8BF5D4A85F813
:101330003100C8BF82F84C30B4F860301AB2002ACD
:10134000C4BF584A82F84D300023337039F0A2FEF2
:10135000554B1870FAF7DFBF4FF00B0EFDF7CCBB03
:10136000B7F9A031042B03DD072B7DF4D3A82FE0C0
:101370004E4B1B785A1E012A0AD84D4B1A780AB1D7
:10138000013A1A7021F0D0FB022021F0BBFC1BE0D7
:10139000032B1DD1464B1B78012B03D8B4F9B43174
:1013A000052B07DCB7F9B4310D2B03DC002020F04E
:1013B0001DF907E03F4B1A78002AF7D01A78013A56
:1013C000D2B21A7021F0B0FBB7F94032FEF77CBB05
:1013D000394B1A7851B263293EF785AB0132FEF7DB
:1013E00081BB0123A6F84032FDF764BC0123A6F8B7
:1013F0004032FDF7EABC03B1013B13703B78082B88
:1014000009D198F80830022B7EF4C4AF1C4B00229F
:101410001A72FEF7BFBF0A2B7EF4BCAF98F80A30F1
:10142000022B7EF4B7AF164B00229A72FEF7B2BFC2
:10143000042B7EF4BCAF184B03221A70FEF7B7BF23
:10144000B6F91C33002B03DD0023A4F81C3371E52F
:101450001A4BB3F80080B8F1000F3EF47CAFB8F13E
:101460000D0F8BBFA8F10E080022A3F800801A8090
:1014700060E500BFAE700020B0BC0020E93600205F
:10148000E1630020EF600020E8360020D345002013
:10149000145D0020543600200C6200202DC5002071
:1014A00081360020903000209C700020F1630020E5
:1014B0009835002068300020F46300200E5D002085
:1014C0000B4A6FF070434FF0FF31C2F88010C2F842
:1014D0008430C2F88011C2F884310023184603F129
:1014E000C00101330F2B42F82100F8D1704700BF33
:1014F00000E100E0094B4FF0206209495A600022E8
:101500009A60D9601A615A619A61DA611A625A6204
:101510004FF0FF329A62DA621A63704700ED00E022
:101520000000FA0540F0BF60024B40F40030D86084
:10153000704700BF00ED00E0C27830B503785AB3C1
:101540001B4A4478D2688578D243C2F30222C2F1A2
:10155000040104FA01F10F24D4402C400C4303F0A1
:101560000301C9002401FF228C408A4003F0FC03E0
:1015700003F1604303F56143D3F8005325EA020108
:1015800022400A43C3F8002303780122590903F0DB
:101590001F0302FA03F306E05909012203F01F03B7
:1015A00002FA03F32031034A42F8213030BD00BF74
:1015B00000ED00E000E100E0002303704370837061
:1015C000C370704700F033B900F02FB900F036B99E
:1015D00000F032B9000100F036B900F037B9024B23
:1015E0005868C0F30930704700ED00E000F01F03B9
:1015F000012202FA03F34009044A403052F8200065
:101600001840C31A58425841704700BF00E100E03B
:10161000014B1860704700BF00EF00E04209012352
:1016200000F01F0003FA00F0024B603243F8220082
:10163000704700BF00E100E0024B5868C0F30900AA
:10164000704700BF00ED00E000F01F03012202FA26
:1016500003F34009044A803052F820001840C31AAE
:1016600058425841704700BF00E100E0014B186844
:10167000704700BF00ED00E021F0604121F07F01E4
:10168000014B08439860704700ED00E0014A024BAF
:10169000DA6070470400FA0500ED00E0014A024BF1
:1016A000DA6070470100FA0500ED00E0044B1A69AA
:1016B00009B1104301E022EA00001861704700BF41
:1016C00000ED00E0012300F01F0003FA00F0044BDE
:1016D0005A6A09B1104301E022EA000058627047DB
:1016E00000ED00E0114B10B5DB68DB43C3F30223D0
:1016F000C3F10404A140FF2424FA03F31A40114368
:10170000C0F30122D2009440090101FA02F2C0F3B1
:1017100081139B0003F1604303F56D43986920EA50
:1017200004049C61986902439A6110BD00ED00E0D9
:10173000C0F3832001238340034A506A1840C31A30
:1017400058425841704700BF00ED00E000F01F0014
:10175000012101FA00F0024B5A6802435A607047B7
:1017600000ED00E000F01F00411E012000FA01F131
:10177000024B5A680A435A60704700BF00ED00E010
:10178000C0F3833001238340034A506A1840C31AD0
:1017900058425841704700BF00ED00E0C0F381425D
:1017A000094B0AB9D86A7047012A0AD1C0F301521D
:1017B000986AD300D840022A14BF00F00F00C0B2CC
:1017C0007047186B704700BF00ED00E0034B10F44A
:1017D000800F0CBF586B986B704700BF00ED00E0A6
:1017E00030BF704720BF704740BF7047BFF36F8F57
:1017F0007047BFF34F8F7047BFF35F8F704701DFB4
:101800007047EFF31480704780F31488BFF36F8F35
:101810007047EFF30980704780F309887047EFF352
:101820000880704780F30888704762B6704772B6C8
:101830007047EFF31080704761B6704771B670471C
:10184000EFF31380704780F311887047EFF3128035
:10185000704740BA704700BA7047000030B50022A8
:101860000F4C104D134611467F2901D8581C02E039
:10187000FF2904D8581EC0B235F8133004E0581CB4
:1018800035F81330C0B25B42013189B2B1F5C07F87
:10189000A35202F1020201D00346E5E730BD00BFCA
:1018A000B85D0020224E010841B10346013911F014
:1018B000FF0101D04343F9E7184670470120704704
:1018C000034B18801A8892B2002AFBD1704700BFE0
:1018D000D06000202DE9F04F87B01D469DF8409064
:1018E00013780E469DF944C00493B9F1000F40F0FF
:1018F0001881A04B0B44A0498B4205D9B6F1004F8B
:1019000000F012814FF0030C002E00F1010305DD01
:101910004FF02B0B80F800B0374605E006D04FF0B3
:101920002D0B80F800B07742184606E03021017098
:101930002E21417037461846B3463C460521002308
:101940004FF00A0E092C07DD0133AB4294FBFEF485
:10195000C8BF0EFB01F1F5E7AB42A8BF7F183946BF
:1019600000230A24092903F1010302DD91FBF4F1AC
:10197000F8E7032DCCEB03034FF003010BD993FBE6
:10198000F1F403F1FF3801FB143398FBF1F8002B5D
:1019900008BF0B4603E093FBF1F801FB183329461F
:1019A00044190A200293CDF804C0FFF77DFF029B83
:1019B000DDF804C0BA460A21824502D39AFBF1FA47
:1019C000FAE70021414505DA12F8010B0028FBD1A6
:1019D0000131F7E76949BCF1000FC8BF4FF00108BA
:1019E000B1F90412022908DC0498752805D1032DE9
:1019F00003D112F8011B0029FBD12146107801F810
:101A0000010F12F8010B0028F8D15A4ADFF864C11F
:101A1000691E3244C9B20592BC44FF2934D00A275A
:101A20009AFBF7F007FB10A7B9F1020F07F1300797
:101A300004F1FF322770824622D0B8F1000F1FDD7B
:101A40008B421DD103910293CDF804C021F0CEF951
:101A5000A21E0399029BDDF804C028B1B9F1000F62
:101A60000BD1454FBC4505E0B9F1000F05D1059FED
:101A70004148874201D9202000E02E2004F8010CC3
:101A80000139C9B21446C8E7B9F1020F23461DD087
:101A9000B9F1000F21D0B8F1000F05D12E236370EA
:101AA000302300E02B232370049B752B5ED1032D84
:101AB0005CD123782B2B04BF20232370632E55DCAD
:101AC000302304F8013C2E2323704FE0B8F1000FBF
